:100000000C9456000C9468000C9468000C946800E2
:100010000C9468000C9468000C9468000C946800C0
:100020000C9468000C9468000C9468000C946800B0
:100030000C9468000C9468000C9468000C946800A0
:100040000C9468000C9468000C9468000C94680090
:100050000C9468000C9468000C9468000C94680080
:100060000C9468000C9468000C9468000C94680070
:100070000C9468000C9468000C9468000C94680060
:100080000C9468000C9468000C9468000C94680050
:100090000C9468000C9468000C9468000C94680040
:1000A0000C9468000C9468000C94680011241FBE26
:1000B000CFEFDAE0DEBFCDBF21E0A0E0B1E001C0CC
:1000C0001D92A031B207E1F70E9492000C946C07D8
:1000D0000C94000084B1806784B985B18F7E85B9A6
:1000E0000895882321F085B1806485B9089585B18C
:1000F0008F7B85B9089587B1806487B984B18260A8
:1001000084B98AB180688AB98BB18F778BB9089529
:10011000882321F085B1826085B9089585B18D7FEE
:1001200085B908950E946A000E947B0080E00E94C9
:10013000710080E00E94880001E020E030E048E4A7
:1001400052E46BED7FE089EC9FEB0E94CA01FFCF88
:100150004F925F926F927F928F929F92AF92BF92D7
:10016000CF92DF92EF92FF920F931F93CF93DF9383
:1001700000D000D000D0CDB7DEB769837A838B83FF
:100180009C838A0121E030E03E832D83812C912CD9
:1001900054015EC02D813E81B901330F880B990B4C
:1001A0000E944A0629813A814B815C810E94FF06A8
:1001B0002B013C01B80180E090E00E9448066B01F1
:1001C0007C019B01AC01C301B2010E94A7052B0178
:1001D0003C016D817E8161507109072E000C880BF6
:1001E000990B0E944A0629813A814B815C810E94C9
:1001F000FF06A70196010E94A7059B01AC01C30160
:10020000B2010E94360520E030E040E05FE30E944A
:10021000FF0620E030E040E251E40E94A70525E21D
:1002200036E041E85DE30E94FF062DEC3CEC4CE437
:100230005DE30E94FF069B01AC01C501B4010E9471
:1002400036054B015C018D819E8101969E838D83D5
:100250002D813E810217130708F09CCFC501B40120
:1002600026960FB6F894DEBF0FBECDBFDF91CF91BB
:100270001F910F91FF90EF90DF90CF90BF90AF90C4
:100280009F908F907F906F905F904F9008958F9286
:100290009F92AF92BF92CF92DF92EF92FF926B014B
:1002A0007C0149015A01109204011092050110923B
:1002B00006011092070110920001109201011092A4
:1002C000020110920301CA01B9010E941705C5017C
:1002D000B4010E94260530C0B19B16C086B382606F
:1002E00086BB8091040190910501A0910601B09117
:1002F00007010196A11DB11D809304019093050192
:10030000A0930601B0930701C19B16C088B3826019
:1003100088BB8091000190910101A0910201B091F0
:1003200003010196A11DB11D80930001909301016D
:10033000A0930201B0930301809104019091050103
:10034000A0910601B09107018C159D05AE05BF0572
:1003500070F48091000190910101A0910201B0918F
:1003600003018C159D05AE05BF0508F4B5CF60E00F
:1003700070E0CB010E94170560E070E0CB010E94A5
:100380002605FF90EF90DF90CF90BF90AF909F90A9
:100390008F9008954F925F926F927F928F929F926B
:1003A000AF92BF92CF92DF92EF92FF920F93CF93D3
:1003B000DF93CDB7DEB72C970FB6F894DEBF0FBE34
:1003C000CDBF6B017C0149015A012B013C01E8942E
:1003D00077F82FE632E143E85AE3C301B2010E9405
:1003E000A20518160CF043C12FE832EC45E75EE396
:1003F000C301B2010E94FF0669837A838B839C83C9
:1004000022EA3BEA4AEC5EE30E94A70520E030E0E6
:1004100040E251E40E94FF0620E030E048E454E46A
:100420000E94FF060E9419062B013C0142E350E0A6
:10043000C501B4010E94A8006D837E838F839887D5
:100440009B01AC010E94360569877A878B879C8760
:1004500020E030E0A901C701B6010E94FA06181693
:100460003CF480E00E94710081E00E94880006C098
:1004700081E00E94710080E00E94880020E030E06E
:1004800040E05FE369857A858B859C850E94FF0645
:100490009B01AC0169817A818B819C810E94A205BC
:1004A00088237CF42AE939E949E95EE3C501B4010E
:1004B0000E94FF069B01AC01C301B2010E944701EB
:1004C000D6C029853A854B855C8569817A818B8187
:1004D0009C810E94A205882314F529853A854B85C5
:1004E0005C8569817A818B819C810E94A7059B0133
:1004F000AC01C501B4010E94FF066B017C01002321
:1005000039F00E940904C701B6010E944904AFC036
:100510000E948603C701B6010E94C803A8C022EA50
:100520003BEA4AEC5EE36D817E818F8198850E9473
:10053000A70520E030E040E251E40E94FF0620E001
:1005400030E048E454E40E94FF060E941906DC01F2
:10055000CB01880F991FAA1FBB1F73016201C81A24
:10056000D90AEA0AFB0A10920401109205011092BE
:1005700006011092070110920001109201011092E1
:10058000020110920301002329F0C501B4010E9469
:10059000090404C0C501B4010E948603C501B40169
:1005A0000E941705C501B4010E94260530C0B19B09
:1005B00016C086B3826086BB8091040190910501CC
:1005C000A0910601B09107010196A11DB11D809374
:1005D000040190930501A0930601B0930701C19B0C
:1005E00016C088B3826088BB8091000190910101A0
:1005F000A0910201B09103010196A11DB11D80934C
:10060000000190930101A0930201B0930301809136
:10061000040190910501A0910601B09107018C158C
:100620009D05AE05BF0570F4809100019091010118
:10063000A0910201B09103018C159D05AE05BF0587
:1006400008F4B5CF002329F0C501B4010E94490484
:1006500004C0C501B4010E94C80360E070E0CB0192
:100660000E94170560E070E0CB010E9426052C96E1
:100670000FB6F894DEBF0FBECDBFDF91CF910F91C3
:10068000FF90EF90DF90CF90BF90AF909F908F90B2
:100690007F906F905F904F9008958F929F92AF924E
:1006A000BF92CF92DF92EF92FF926B017C0120E02C
:1006B00030E040E450E40E94FF069B01AC01C7011A
:1006C000B6010E94FF064B015C01A7019601C7011C
:1006D000B6010E9436059B01AC01C701B6010E941C
:1006E000FF069B01AC01C701B6010E94FF069B01FA
:1006F000AC01C501B4010E943505FF90EF90DF9079
:10070000CF90BF90AF909F908F9008958F929F92BF
:10071000AF92BF92CF92DF92EF92FF92CF93DF938F
:100720004B015C01C1E0D0E025C0BE010D2E000CE4
:10073000880B990B0E944A0620E030E048E452E41E
:100740000E94A7050E944D03A50194010E94FF0687
:100750006B017C010E941705C701B6010E942605A6
:100760002FEF80E792E0215080409040E1F700C0F9
:1007700000002196C333D105C4F2DF91CF91FF90E1
:10078000EF90DF90CF90BF90AF909F908F900895A3
:100790008F929F92AF92BF92CF92DF92EF92FF9291
:1007A000CF93DF934B015C01C1E3D0E025C0BE01D4
:1007B0000D2E000C880B990B0E944A0620E030E0B9
:1007C00048E452E40E94A7050E944D03A50194014C
:1007D0000E94FF066B017C010E941705C701B6014C
:1007E0000E9426052FEF80E792E021508040904044
:1007F000E1F700C000002197DD23CCF6DF91CF9117
:10080000FF90EF90DF90CF90BF90AF909F908F9030
:1008100008958F929F92AF92BF92CF92DF92EF9204
:10082000FF92CF93DF934B015C01C1E0D0E023C086
:10083000BE010D2E000C880B990B0E944A06A501E3
:1008400094010E94FF0620E030E048E452E40E9458
:10085000A7056B017C010E941705C701B6010E9424
:1008600026052FEF80E792E0215080409040E1F78D
:1008700000C000002196C333D105D4F2DF91CF919F
:10088000FF90EF90DF90CF90BF90AF909F908F90B0
:1008900008958F929F92AF92BF92CF92DF92EF9284
:1008A000FF92CF93DF934B015C01C1E3D0E023C003
:1008B000BE010D2E000C880B990B0E944A06A50163
:1008C00094010E94FF0620E030E048E452E40E94D8
:1008D000A7056B017C010E941705C701B6010E94A4
:1008E00026052FEF80E792E0215080409040E1F70D
:1008F00000C000002197DD23DCF6DF91CF91FF904F
:10090000EF90DF90CF90BF90AF909F908F90089521
:100910002BEE39EC48E151E40E94FF060895CF9296
:10092000DF92EF92FF926B017C0120E030E0A901A1
:100930000E94A20518160CF040C020E030E048E408
:1009400054E4C701B6010E94FF0620E030E040E712
:1009500052E40E94A7056B017C0120E030E0A90170
:100960000E94A205181664F520E030E040E051E452
:10097000C701B6010E94FF069B01AC0160E074E272
:1009800084E79BE40E94A7056B017C0120E03FEF18
:100990004FE757E40E94FA0618164CF40F2EC12CAC
:1009A000DD24DA94FFE7EF2EF7E4FF2EF02DC701E8
:1009B000B6010E941906CB0105C080E090E002C09C
:1009C00080E090E0FF90EF90DF90CF900895009747
:1009D00059F4E0E8F0E080818F7B8083E1E8F0E08B
:1009E0008081887F8083089520E4209380002AE01E
:1009F0002093810090938900809388000895009748
:100A000059F4E0E9F0E080818F7B8083E1E9F0E058
:100A10008081887F8083089520E4209390002AE0DD
:100A2000209391009093990080939800089560938B
:100A30000C0170930D0180930E0190930F010E94A1
:100A400088040E948F040E94E704089560930801BF
:100A50007093090180930A0190930B010E9488040E
:100A60000E948F040E94FF0408955058BB27AA27B4
:100A70000E944D050C94C0060E94B20638F00E94F8
:100A8000B90620F039F49F3F19F426F40C94AF0610
:100A90000EF4E095E7FB0C94A906E92F0E94D1061D
:100AA00058F3BA17620773078407950720F079F4A3
:100AB000A6F50C94F3060EF4E0950B2EBA2FA02D9C
:100AC0000B01B90190010C01CA01A0011124FF27FB
:100AD000591B99F0593F50F4503E68F11A16F040F6
:100AE000A22F232F342F4427585FF3CF46953795F5
:100AF0002795A795F0405395C9F77EF41F16BA0BBA
:100B0000620B730B840BBAF09150A1F0FF0FBB1F67
:100B1000661F771F881FC2F70EC0BA0F621F731FB0
:100B2000841F48F4879577956795B795F7959E3F0D
:100B300008F0B0CF9395880F08F09927EE0F97959E
:100B4000879508950E94850608F481E008950E9423
:100B5000BB050C94C0060E94B90658F00E94B2066C
:100B600040F029F45F3F29F00C94A90651110C9430
:100B7000F4060C94AF060E94D10668F39923B1F3F2
:100B8000552391F3951B550BBB27AA2762177307B3
:100B9000840738F09F5F5F4F220F331F441FAA1F47
:100BA000A9F335D00E2E3AF0E0E832D09150504003
:100BB000E695001CCAF72BD0FE2F29D0660F771FB1
:100BC000881FBB1F261737074807AB07B0E809F097
:100BD000BB0B802DBF01FF2793585F4F3AF09E3F1C
:100BE000510578F00C94A9060C94F4065F3FE4F3E9
:100BF000983ED4F3869577956795B795F7959F5F5F
:100C0000C9F7880F911D9695879597F90895E1E0AA
:100C1000660F771F881FBB1F621773078407BA0709
:100C200020F0621B730B840BBA0BEE1F88F7E09564
:100C300008950E94D90688F09F5798F0B92F9927F8
:100C4000B751B0F0E1F0660F771F881F991F1AF0B7
:100C5000BA95C9F714C0B13091F00E94F306B1E023
:100C600008950C94F306672F782F8827B85F39F022
:100C7000B93FCCF3869577956795B395D9F73EF450
:100C800090958095709561957F4F8F4F9F4F0895F8
:100C9000E89409C097FB3EF4909580957095619516
:100CA0007F4F8F4F9F4F9923A9F0F92F96E9BB27CC
:100CB0009395F695879577956795B795F111F8CF48
:100CC000FAF4BB0F11F460FF1BC06F5F7F4F8F4FB3
:100CD0009F4F16C0882311F096E911C0772321F0A9
:100CE0009EE8872F762F05C0662371F096E8862F41
:100CF00070E060E02AF09A95660F771F881FDAF798
:100D0000880F9695879597F90895990F0008550FC4
:100D1000AA0BE0E8FEEF16161706E807F907C0F081
:100D200012161306E407F50798F0621B730B840B89
:100D3000950B39F40A2661F0232B242B252B21F463
:100D400008950A2609F4A140A6958FEF811D811D03
:100D5000089597F99F6780E870E060E008959FEF3D
:100D600080EC089500240A94161617061806090642
:100D7000089500240A941216130614060506089511
:100D8000092E0394000C11F4882352F0BB0F40F499
:100D9000BF2B11F460FF04C06F5F7F4F8F4F9F4FD9
:100DA000089557FD9058440F551F59F05F3F71F05B
:100DB0004795880F97FB991F61F09F3F79F08795C2
:100DC0000895121613061406551FF2CF4695F1DF4B
:100DD00008C0161617061806991FF1CF86957105DB
:100DE000610508940895E894BB2766277727CB010F
:100DF00097F908950E94850608F48FEF08950E94E0
:100E000012070C94C0060E94B20638F00E94B90680
:100E100020F0952311F00C94A9060C94AF06112430
:100E20000C94F4060E94D10670F3959FC1F3950FC0
:100E300050E0551F629FF001729FBB27F00DB11D5E
:100E4000639FAA27F00DB11DAA1F649F6627B00DEE
:100E5000A11D661F829F2227B00DA11D621F739FD7
:100E6000B00DA11D621F839FA00D611D221F749FE5
:100E70003327A00D611D231F849F600D211D822F2C
:100E8000762F6A2F11249F5750409AF0F1F0882353
:100E90004AF0EE0FFF1FBB1F661F771F881F915080
:100EA0005040A9F79E3F510580F00C94A9060C9480
:100EB000F4065F3FE4F3983ED4F386957795679503
:100EC000B795F795E7959F5FC1F7FE2B880F911DAA
:0C0ED0009695879597F90895F894FFCF48
:00000001FF
