:100000000C9456000C9460000C9460000C946000FA
:100010000C9460000C9460000C9460000C946000E0
:100020000C9460000C9460000C9460000C946000D0
:100030000C9460000C9460000C9460000C946000C0
:100040000C9460000C9460000C9460000C946000B0
:100050000C9460000C9460000C9460000C946000A0
:100060000C9460000C9460000C9460000C94600090
:100070000C9460000C9460000C9460000C94600080
:100080000C9460000C9460000C9460000C94600070
:100090000C9460000C9460000C9460000C94600060
:1000A0000C9460000C9460000C94600011241FBE3E
:1000B000CFEFDAE0DEBFCDBF0E9490000C946D035D
:1000C0000C940000882321F085B1806485B90895DF
:1000D00085B18F7B85B9089584B1806784B985B176
:1000E0008F7E85B981E00E9462000895882321F007
:1000F00085B1826085B9089585B18D7F85B90895F0
:1001000087B1806487B984B1826084B98AB180681C
:100110008AB98BB18F778BB981E00E947600089500
:100120000E946C000E94800081E00E94620080E0DA
:100130000E94760064EA70E781ED92E40E94B000CC
:100140002FEF87EA91E6215080409040E1F700C010
:10015000000064EA70E781ED92E40E94F000FFCFB6
:100160008F929F92AF92BF92CF92DF92EF92FF92C7
:10017000CF93DF934B015C01C1E0D0E023C0BE010F
:100180000D2E000C880B990B0E944B02A5019401C7
:100190000E94000320E030E048E452E40E94A801FD
:1001A0006B017C010E949501C701B6010E949C0170
:1001B0002FEF80E792E0215080409040E1F700C0AF
:1001C00000002196C333D105D4F2DF91CF91FF9087
:1001D000EF90DF90CF90BF90AF909F908F90089559
:1001E0008F929F92AF92BF92CF92DF92EF92FF9247
:1001F000CF93DF934B015C01C1E3D0E023C0BE018C
:100200000D2E000C880B990B0E944B02A501940146
:100210000E94000320E030E048E452E40E94A8017C
:100220006B017C010E949501C701B6010E949C01EF
:100230002FEF80E792E0215080409040E1F700C02E
:1002400000002197DD23DCF6DF91CF91FF90EF9046
:10025000DF90CF90BF90AF909F908F9008952BEE3E
:1002600039EC48E151E40E9400030895CF92DF92F7
:10027000EF92FF926B017C0120E030E0A9010E9427
:10028000A3011816ACF520E030E048E454E4C701BF
:10029000B6010E94000320E030E040E752E40E94F3
:1002A000A80120E030E040E051E40E9400039B01FF
:1002B000AC0160E074E284E79BE40E94A8016B015A
:1002C0007C0120E03FEF4FE757E40E94FB02181645
:1002D0004CF40F2EC12CDD24DA94FFE7EF2EF7E467
:1002E000FF2EF02DC701B6010E941A02CB0102C0F9
:1002F0008FEF9FEFFF90EF90DF90CF90089520E475
:10030000209380002AE020938100909389008093BD
:100310008800089520E4209390002AE02093910023
:10032000909399008093980008950E942F010E9455
:1003300036010E947F0108950E942F010E9436011C
:100340000E948A0108950E94860208F481E00895BF
:100350000E94BC010C94C1020E94BA0258F00E9493
:10036000B30240F029F45F3F29F00C94AA02511126
:100370000C94F5020C94B0020E94D20268F3992307
:10038000B1F3552391F3951B550BBB27AA27621791
:100390007307840738F09F5F5F4F220F331F441F9E
:1003A000AA1FA9F335D00E2E3AF0E0E832D09150D2
:1003B0005040E695001CCAF72BD0FE2F29D0660FBF
:1003C000771F881FBB1F261737074807AB07B0E802
:1003D00009F0BB0B802DBF01FF2793585F4F3AF008
:1003E0009E3F510578F00C94AA020C94F5025F3FF1
:1003F000E4F3983ED4F3869577956795B795F7958E
:100400009F5FC9F7880F911D9695879597F9089575
:10041000E1E0660F771F881FBB1F62177307840711
:10042000BA0720F0621B730B840BBA0BEE1F88F720
:10043000E09508950E94DA0288F09F5798F0B92F4E
:100440009927B751B0F0E1F0660F771F881F991F09
:100450001AF0BA95C9F714C0B13091F00E94F402B5
:10046000B1E008950C94F402672F782F8827B85FC5
:1004700039F0B93FCCF3869577956795B395D9F761
:100480003EF490958095709561957F4F8F4F9F4F6B
:100490000895E89409C097FB3EF490958095709577
:1004A00061957F4F8F4F9F4F9923A9F0F92F96E9C0
:1004B000BB279395F695879577956795B795F11135
:1004C000F8CFFAF4BB0F11F460FF1BC06F5F7F4FD2
:1004D0008F4F9F4F16C0882311F096E911C07723E4
:1004E00021F09EE8872F762F05C0662371F096E8ED
:1004F000862F70E060E02AF09A95660F771F881FBC
:10050000DAF7880F9695879597F90895990F00085F
:10051000550FAA0BE0E8FEEF16161706E807F907D5
:10052000C0F012161306E407F50798F0621B730B70
:10053000840B950B39F40A2661F0232B242B252BF1
:1005400021F408950A2609F4A140A6958FEF811D94
:10055000811D089597F99F6780E870E060E0089535
:100560009FEF80EC089500240A94161617061806CB
:100570000906089500240A941216130614060506A7
:100580000895092E0394000C11F4882352F0BB0F38
:1005900040F4BF2B11F460FF04C06F5F7F4F8F4F9B
:1005A0009F4F089557FD9058440F551F59F05F3FD6
:1005B00071F04795880F97FB991F61F09F3F79F085
:1005C00087950895121613061406551FF2CF469507
:1005D000F1DF08C0161617061806991FF1CF869589
:1005E0007105610508940895E894BB27662777276D
:1005F000CB0197F908950E94860208F48FEF0895C1
:100600000E9413030C94C1020E94B30238F00E94AE
:10061000BA0220F0952311F00C94AA020C94B002B7
:1006200011240C94F5020E94D20270F3959FC1F33D
:10063000950F50E0551F629FF001729FBB27F00D90
:10064000B11D639FAA27F00DB11DAA1F649F6627E5
:10065000B00DA11D661F829F2227B00DA11D621F34
:10066000739FB00DA11D621F839FA00D611D221FEE
:10067000749F3327A00D611D231F849F600D211DD2
:10068000822F762F6A2F11249F5750409AF0F1F055
:1006900088234AF0EE0FFF1FBB1F661F771F881FBE
:1006A00091505040A9F79E3F510580F00C94AA024A
:1006B0000C94F5025F3FE4F3983ED4F3869577956A
:1006C0006795B795F795E7959F5FC1F7FE2B880F64
:0E06D000911D9695879597F90895F894FFCFA0
:00000001FF
