S00D000052533438352E73726563D1
S11300000C9456000C9473000C9473000C947300BD
S11300100C9473000C9473000C9473000C94730090
S11300200C9473000C9473000C9473000C94730080
S11300300C9473000C9473000C9473000C94730070
S11300400C9473000C9473000C9473000C94730060
S11300500C9473000C9473000C9473000C94730050
S11300600C9473000C9473000C9473000C94730040
S11300700C9473000C9473000C9473000C94730030
S11300800C9473000C9473000C9473000C94730020
S11300900C9473000C9473000C9473000C94730010
S11300A00C9473000C9473000C94730011241FBE01
S11300B0CFEFDAE0DEBFCDBF11E0A0E0B1E0E4E4D1
S11300C0F2E002C005900D92A030B107D9F721E00B
S11300D0A0E0B1E001C01D92A132B207E1F70E9495
S11300E085000C9420010C94000085B1816085B9D1
S11300F02FEF81EE94E0215080409040E1F700C062
S1130100000085B18E7F85B908958AB180618AB96E
S113011084B1816084B98BB18F7E8BB980E895E21C
S11301200E94D6000E94FA008823E1F30E94F300A3
S1130130E0910001EF3140F491E09E0F90930001B3
S1130140F0E0EF5FFE4F80838A3061F7E0910001B9
S1130150F0E0EF5FFE4F10820E947500E8ECF0E0E3
S11301608081806480838BB180618BB985E38A95BB
S1130170F1F70000C0E00CC0EC2FF0E0EF5FFE4FA1
S113018080810E94EC008091C80086FFFCCFCF5F85
S113019080910001C81780F385E38A95F1F7000088
S11301A08BB18F7E8BB910920001BCCF9C0140E0D3
S11301B050E060E472E48FE090E00E94FE00215081
S11301C031093093CD002093CC0088E18093C9009D
S11301D086E08093CA0008959091C80095FFFCCFF3
S11301E08093CE0008958091C8008823E4F780911D
S11301F0CE0008958091C80080780895A1E21A2E57
S1130200AA1BBB1BFD010DC0AA1FBB1FEE1FFF1FB6
S1130210A217B307E407F50720F0A21BB30BE40B06
S1130220F50B661F771F881F991F1A9469F760954D
S11302307095809590959B01AC01BD01CF01089507
S1070240F894FFCF5C
S9030000FC
