S015000052656D6F7465436F6E74726F6C2E73726563C2
S11300000C9479000C9496000C9496000C94960031
S11300100C9496000C9496000C9496000C94960004
S11300200C9496000C9496000C9496000C949600F4
S11300300C9496000C9496000C9496000C949600E4
S11300400C9496000C9496000C9496000C949600D4
S11300500C9496000C94CE020C9496000C9496008A
S11300600C9496000C9496000C9496000C949600B4
S11300700C9496000C9496000C9496000C949600A4
S11300800C9496000C9496000C9496000C94960094
S11300900C9496000C9496000C9496000C94960084
S11300A00C9496000C9496000C949600340129014B
S11300B04A013F015C015C015C015C015C015C0183
S11300C05C015C015C015C015C015C015C01080198
S11300D05C015C015C01FD005C0155015C015C019B
S11300E05C0113015C015C015C015C015C011E01AB
S11300F0F60011241FBECFEFDAE0DEBFCDBF11E062
S1130100A0E0B1E0EAE8F3E102C005900D92A43367
S1130110B107D9F721E0A4E3B1E001C01D92AB35EA
S1130120B207E1F70E9416020C94C3090C94000074
S1130130A0E0B0E0880F991FAA1FBB1F880F991F6A
S1130140AA1FBB1F9C01AD01220F331F441F551F63
S1130150220F331F441F551F60E074E284EF90E0C8
S11301600E949B09215031093093CD002093CC008B
S113017088E18093C90086E08093CA000895909135
S1130180C80095FFFCCF8093CE000895CF93DF93F2
S1130190EC018BB180618BB98FE99FE00197F1F796
S11301A000C0000003C021960E94BF008881811115
S11301B0FACF8FE99FE00197F1F700C000008BB1FF
S11301C08F7E8BB9DF91CF91089520910001211189
S11301D00E94C600089590E0FC01F197E332F10516
S11301E008F06AC0EA5AFF4F0C94BD090E947702D6
S11301F080E191E00E94E500089564EA70E781E5FA
S113020092E40E94240489E191E00E94E5000895AB
S113021064EA70E781E592E40E94660489E191E072
S11302200E94E500089560E070E088E492E40E9492
S1130230A80489E191E00E94E500089560E070E07F
S113024088E492E40E94EA0489E191E00E94E500D6
S1130250089564EA70E781E592E40E942C0589E13F
S113026091E00E94E500089564EA70E781E592E474
S11302700E947C0589E191E00E94E500089564EA0A
S113028070E781E592E40E94CC0589E191E00E9447
S1130290E500089564EA70E781E592E40E941C0693
S11302A089E191E00E94E50008950E941F0481E223
S11302B091E00E94E500089585E291E00E94E50046
S11302C00895833591F0863481F0823471F08C3452
S11302D061F0823551F0823341F0813331F084335F
S11302E021F0833311F0883449F48093350191E08F
S11302F0909334010E94EB0010923601089580918E
S11303003601833078F190E0FC01EC5CFE4F2081F3
S11303102B3141F5FC01EB5CFE4F20812B3511F5AF
S1130320FC01EA5CFE4F8081823451F018F4813480
S113033069F004C0833431F0843431F080E007C0C4
S113034082E405C082E503C08CE401C086E488230E
S113035039F08093350191E0909334010E94EB00D1
S11303601092360108958AB180618AB98BB18F7E6B
S11303708BB980E895E20E949800109236011092A1
S11303803501109234010E9444028CE291E00E94F3
S1130390E50008958091C8008823ECF48091CE0094
S11303A0E0913601E73068F491E09E0F90933601B6
S11303B0F0E0E95CFE4F8083E92FF0E0E95CFE4F5A
S11303C010820E9461010E947F0180913601873072
S11303D010F0109236010E940904089584B18067D8
S11303E084B985B18F7E85B90895882321F085B1BC
S11303F0806485B9089585B18F7B85B9089587B1E7
S1130400806487B984B1826084B98AB180688AB90A
S11304108BB18F778BB90895882321F085B18260E1
S113042085B9089585B18D7F85B908950E94EE013F
S11304300E94FF0180E00E94F50180E00E940C020E
S11304400E94B30181E00E94A50661E378E08CE29A
S11304509DE30E94DA0664EA70E781E592E40E9473
S1130460710660E070E080E292E40E948B0688EE00
S113047093E00E946C060E94CA018FE39CE90197F5
S1130480F1F700C00000F7CF82E084BD85E085BDB0
S11304908EE087BDEEE6F0E0808182608083789410
S11304A01092520110925101109250011092430186
S11304B010924401109245011092460110923F019E
S11304C010924001109241011092420110924B018E
S11304D010924C0110924D0110924E01109247015E
S11304E0109248011092490110924A010895109205
S11304F05201109251011092500180914F018823B2
S113050089F010924B0110924C0110924D011092FF
S11305104E01109247011092480110924901109225
S11305204A01089560E070E0CB010E94830760E017
S113053070E0CB010E94920708951092520110922C
S113054051011092500110924B0110924C011092E3
S11305504D0110924E0110924701109248011092E1
S1130560490110924A0110924301109244011092E1
S113057045011092460110923F01109240011092E1
S113058041011092420160E070E0CB010E948307B8
S113059060E070E0CB010E94920708951F920F92D1
S11305A00FB60F9211248F929F92AF92BF92CF9267
S11305B0DF92EF92FF922F933F934F935F936F934A
S11305C07F938F939F93AF93BF93EF93FF93809108
S11305D00D018823D1F0809152018823B1F08091DC
S11305E050019091510101969093510180935001D3
S11305F0209150013091510180910E0190910F0191
S11306002817390710F00E949D0280914F0188231A
S113061009F4E6C08090430190904401A090450104
S1130620B0904601C0904B01D0904C01E0904D0138
S1130630F0904E01A7019601C501B4010E940E0875
S113064088232CF52091010130910201409103018E
S113065050910401C501B4010E94A2079B01AC01A1
S11306606093430170934401809345019093460144
S1130670C701B6010E940E088823ACF5C09243015D
S1130680D0924401E0924501F09246012CC0A701AA
S11306909601C501B4010E942909181624F5209178
S11306A00101309102014091030150910401C501FF
S11306B0B4010E94A1079B01AC01609343017093B4
S11306C044018093450190934601C701B6010E94FD
S11306D02909181644F4C0924301D0924401E092CF
S11306E04501F092460180903F0190904001A09016
S11306F04101B0904201C0904701D0904801E09080
S11307004901F0904A01A7019601C501B4010E9474
S11307100E0888232CF520910101309102014091AB
S1130720030150910401C501B4010E94A2079B0179
S1130730AC0160933F017093400180934101909319
S11307404201C701B6010E940E088823ACF5C0928D
S11307503F01D0924001E0924101F09242012CC04D
S1130760A7019601C501B4010E942909181624F5B0
S11307702091010130910201409103015091040143
S1130780C501B4010E94A1079B01AC0160933F0124
S1130790709340018093410190934201C701B601D7
S11307A00E942909181644F4C0923F01D0924001D6
S11307B0E0924101F0924201609143017091440141
S11307C080914501909146010E94830760913F0109
S11307D07091400180914101909142010E949207E1
S11307E0FF91EF91BF91AF919F918F917F916F9105
S11307F05F914F913F912F91FF90EF90DF90CF90B9
S1130800BF90AF909F908F900F900FBE0F901F904E
S1130810189580910D01882389F0809152018823D5
S113082069F0209150013091510180910E01909115
S11308300F012817390710F00E949D0208951092A5
S11308405101109250010895CF92DF92EF92FF92DE
S11308506B017C0120E030E0A9010E940E0888238E
S113086044F4C0900901D0900A01E0900B01F0908B
S11308700C0181E0809352010E941F0480E00E94D9
S1130880F50180E00E940C0280914F01882389F0D9
S1130890C0924B01D0924C01E0924D01F0924E0176
S11308A0C0924701D0924801E0924901F0924A0176
S11308B008C0C701B6010E948307C701B6010E94A0
S11308C09207FF90EF90DF90CF900895CF92DF9240
S11308D0EF92FF926B017C0120E030E0A9010E94BD
S11308E00E08882344F4C0900901D0900A01E090D6
S11308F00B01F0900C0182E0809352010E941F04CE
S113090081E00E94F50181E00E940C0280914F0178
S1130910882389F0C0924B01D0924C01E0924D01A2
S1130920F0924E01C0924701D0924801E0924901F1
S1130930F0924A0108C0C701B6010E948307C701AB
S1130940B6010E949207FF90EF90DF90CF90089538
S1130950CF92DF92EF92FF926B017C0120E030E0B6
S1130960A9010E940E08882344F4C0900501D09088
S11309700601E0900701F090080183E080935201A2
S11309800E941F0481E00E94F50180E00E940C0295
S113099080914F01882389F0C0924B01D0924C0181
S11309A0E0924D01F0924E01C0924701D09248016D
S11309B0E0924901F0924A0108C0C701B6010E94C1
S11309C08307C701B6010E949207FF90EF90DF9062
S11309D0CF900895CF92DF92EF92FF926B017C014A
S11309E020E030E0A9010E940E08882344F4C0905E
S11309F00501D0900601E0900701F090080184E021
S1130A00809352010E941F0480E00E94F50181E05E
S1130A100E940C0280914F01882389F0C0924B01FF
S1130A20D0924C01E0924D01F0924E01C0924701E8
S1130A30D0924801E0924901F0924A0108C0C701EE
S1130A40B6010E948307C701B6010E949207FF9076
S1130A50EF90DF90CF900895CF92DF92EF92FF92C4
S1130A606B017C0120E030E0A9010E940E0888237C
S1130A7044F4C0900901D0900A01E0900B01F09079
S1130A800C0185E0809352010E941F0480E00E94C3
S1130A90F50180E00E940C0280914F018823C9F087
S1130AA020E030E040E05FE3C701B6010E942E0978
S1130AB060934B0170934C0180934D0190934E01D0
S1130AC0C0924701D0924801E0924901F0924A0154
S1130AD00EC020E030E040E05FE3C701B6010E94B1
S1130AE02E090E948307C701B6010E949207FF9056
S1130AF0EF90DF90CF900895CF92DF92EF92FF9224
S1130B006B017C0120E030E0A9010E940E088823DB
S1130B1044F4C0900901D0900A01E0900B01F090D8
S1130B200C0186E0809352010E941F0480E00E9421
S1130B30F50180E00E940C0280914F018823C9F0E6
S1130B40C0924B01D0924C01E0924D01F0924E01C3
S1130B5020E030E040E05FE3C701B6010E942E09C7
S1130B6060934701709348018093490190934A012F
S1130B700EC0C701B6010E94830720E030E040E0C8
S1130B805FE3C701B6010E942E090E949207FF90FD
S1130B90EF90DF90CF900895CF92DF92EF92FF9283
S1130BA06B017C0120E030E0A9010E940E0888233B
S1130BB044F4C0900901D0900A01E0900B01F09038
S1130BC00C0187E0809352010E941F0481E00E947F
S1130BD0F50181E00E940C0280914F018823C9F045
S1130BE020E030E040E05FE3C701B6010E942E0937
S1130BF060934B0170934C0180934D0190934E018F
S1130C00C0924701D0924801E0924901F0924A0112
S1130C100EC020E030E040E05FE3C701B6010E946F
S1130C202E090E948307C701B6010E949207FF9014
S1130C30EF90DF90CF900895CF92DF92EF92FF92E2
S1130C406B017C0120E030E0A9010E940E0888239A
S1130C5044F4C0900901D0900A01E0900B01F09097
S1130C600C0188E0809352010E941F0481E00E94DD
S1130C70F50181E00E940C0280914F018823C9F0A4
S1130C80C0924B01D0924C01E0924D01F0924E0182
S1130C9020E030E040E05FE3C701B6010E942E0986
S1130CA060934701709348018093490190934A01EE
S1130CB00EC0C701B6010E94830720E030E040E087
S1130CC05FE3C701B6010E942E090E949207FF90BC
S1130CD0EF90DF90CF90089590930F0180930E01D1
S1130CE00895CF92DF92EF92FF926B017C0120E096
S1130CF030E0A9010E942909181644F4C0920901A0
S1130D00D0920A01E0920B01F0920C01FF90EF9057
S1130D10DF90CF900895CF92DF92EF92FF926B0114
S1130D207C0120E030E0A9010E942909181644F44E
S1130D30C0920501D0920601E0920701F0920801E9
S1130D40FF90EF90DF90CF9008950F931F938093BF
S1130D504F0181112CC060914B0170914C01809125
S1130D604D0190914E01609343017093440180932F
S1130D70450190934601009147011091480120914B
S1130D80490130914A0100933F011093400120939F
S1130D904101309342010E94830760913F017091A9
S1130DA0400180914101909142010E9492071F915C
S1130DB00F910895CF92DF92EF92FF926B017C0125
S1130DC020E030E0A9010E942909181644F4C092D9
S1130DD00101D0920201E0920301F0920401FF901C
S1130DE0EF90DF90CF9008952BEE39EC48E151E479
S1130DF00E942E090895CF92DF92EF92FF926B0129
S1130E007C0120E030E0A9010E940E0818160CF0C5
S1130E1040C020E030E048E454E4C701B6010E9439
S1130E202E0920E030E040E752E40E9413086B01F1
S1130E307C0120E030E0A9010E940E08181664F538
S1130E4020E030E040E051E4C701B6010E942E09E1
S1130E509B01AC0160E074E284E79BE40E94130808
S1130E606B017C0120E03FEF4FE757E40E94290922
S1130E7018164CF40F2EC12CDD24DA94FFE7EF2E64
S1130E80F7E4FF2EF02DC701B6010E948508CB01BF
S1130E9005C080E090E002C080E090E0FF90EF9019
S1130EA0DF90CF900895009759F4E0E8F0E0808156
S1130EB08F7B8083E1E8F0E08081887F80830895E0
S1130EC020E4209380002AE02093810090938900FD
S1130ED0809388000895009759F4E0E9F0E0808158
S1130EE08F7B8083E1E9F0E08081887F80830895AF
S1130EF020E4209390002AE020939100909399009D
S1130F0080939800089560935701709358018093DB
S1130F10590190935A010E94F4060E94FB060E9414
S1130F2053070895609353017093540180935501BE
S1130F30909356010E94F4060E94FB060E946B07E0
S1130F4008955058BB27AA270E94B9070C94EF08AC
S1130F500E94E10838F00E94E80820F039F49F3F2D
S1130F6019F426F40C94DE080EF4E095E7FB0C94D7
S1130F70D808E92F0E94000958F3BA1762077307CB
S1130F808407950720F079F4A6F50C9422090EF451
S1130F90E0950B2EBA2FA02D0B01B90190010C0185
S1130FA0CA01A0011124FF27591B99F0593F50F49D
S1130FB0503E68F11A16F040A22F232F342F4427F5
S1130FC0585FF3CF469537952795A795F0405395ED
S1130FD0C9F77EF41F16BA0B620B730B840BBAF0BD
S1130FE09150A1F0FF0FBB1F661F771F881FC2F728
S1130FF00EC0BA0F621F731F841F48F4879577953C
S11310006795B795F7959E3F08F0B0CF9395880FF5
S113101008F09927EE0F9795879508950E94B408D4
S113102008F481E008950E9427080C94EF080E94B8
S1131030E80858F00E94E10840F029F45F3F29F0E5
S11310400C94D80851110C9423090C94DE080E94C6
S1131050000968F39923B1F3552391F3951B550BBC
S1131060BB27AA2762177307840738F09F5F5F4F77
S1131070220F331F441FAA1FA9F335D00E2E3AF0B6
S1131080E0E832D091505040E695001CCAF72BD0CE
S1131090FE2F29D0660F771F881FBB1F261737071F
S11310A04807AB07B0E809F0BB0B802DBF01FF2751
S11310B093585F4F3AF09E3F510578F00C94D8084E
S11310C00C9423095F3FE4F3983ED4F38695779517
S11310D06795B795F7959F5FC9F7880F911D96950A
S11310E0879597F90895E1E0660F771F881FBB1F66
S11310F0621773078407BA0720F0621B730B840B13
S1131100BA0BEE1F88F7E09508950E94080988F04D
S11311109F5798F0B92F9927B751B0F0E1F0660FB7
S1131120771F881F991F1AF0BA95C9F714C0B130F8
S113113091F00E942209B1E008950C942209672FCE
S1131140782F8827B85F39F0B93FCCF38695779527
S11311506795B395D9F73EF4909580957095619510
S11311607F4F8F4F9F4F0895990F0008550FAA0B7B
S1131170E0E8FEEF16161706E807F907C0F01216A6
S11311801306E407F50798F0621B730B840B950BA9
S113119039F40A2661F0232B242B252B21F40895FE
S11311A00A2609F4A140A6958FEF811D811D08959B
S11311B097F99F6780E870E060E008959FEF80EC06
S11311C0089500240A9416161706180609060895A9
S11311D000240A9412161306140605060895092E0F
S11311E00394000C11F4882352F0BB0F40F4BF2B7E
S11311F011F460FF04C06F5F7F4F8F4F9F4F0895BE
S113120057FD9058440F551F59F05F3F71F04795B3
S1131210880F97FB991F61F09F3F79F08795089598
S1131220121613061406551FF2CF4695F1DF08C0B7
S1131230161617061806991FF1CF869571056105D4
S113124008940895E894BB2766277727CB0197F97C
S113125008950E94B40808F48FEF08950E9441098C
S11312600C94EF080E94E10838F00E94E80820F08E
S1131270952311F00C94D8080C94DE0811240C94D6
S113128023090E94000970F3959FC1F3950F50E064
S1131290551F629FF001729FBB27F00DB11D639F24
S11312A0AA27F00DB11DAA1F649F6627B00DA11DCA
S11312B0661F829F2227B00DA11D621F739FB00D70
S11312C0A11D621F839FA00D611D221F749F3327E0
S11312D0A00D611D231F849F600D211D822F762F79
S11312E06A2F11249F5750409AF0F1F088234AF056
S11312F0EE0FFF1FBB1F661F771F881F91505040C2
S1131300A9F79E3F510580F00C94D8080C9423094A
S11313105F3FE4F3983ED4F3869577956795B79548
S1131320F795E7959F5FC1F7FE2B880F911D969562
S1131330879597F90895A1E21A2EAA1BBB1BFD01FC
S11313400DC0AA1FBB1FEE1FFF1FA217B307E407A0
S1131350F50720F0A21BB30BE40BF50B661F771FF8
S1131360881F991F1A9469F76095709580959095D8
S11313709B01AC01BD01CF010895EE0FFF1F059045
S10D1380F491E02D0994F894FFCFD6
S113138A010000A04100004842A470514201F40146
S113139A53544F505045440A004D4F56494E470A3C
S11313AA004F4B0A004552524F520A0052454144DB
S10713BA590A0000C8
S9030000FC
