:100000000C9456000C9460000C9460000C946000FA
:100010000C9460000C9460000C9460000C946000E0
:100020000C9460000C9460000C9460000C946000D0
:100030000C9460000C9460000C9460000C946000C0
:100040000C9460000C9460000C9460000C946000B0
:100050000C9460000C9460000C9460000C946000A0
:100060000C9460000C9460000C9460000C94600090
:100070000C9460000C9460000C9460000C94600080
:100080000C9460000C9460000C9460000C94600070
:100090000C9460000C9460000C9460000C94600060
:1000A0000C9460000C9460000C94600011241FBE3E
:1000B000CFEFDAE0DEBFCDBF0E9476000C948C0358
:1000C0000C940000882321F085B1806485B90895DF
:1000D00085B18F7B85B9089584B1806784B985B176
:1000E0008F7E85B981E00E94620008950E946C00B5
:1000F00080E00E94620064EA70E781ED92E40E9471
:10010000BB00FFCF8F929F92AF92BF92CF92DF92B0
:10011000EF92FF926B017C0120E030E040E450E47C
:100120000E941F039B01AC01C701B6010E941F037F
:100130004B015C01A7019601C701B6010E9456015F
:100140009B01AC01C701B6010E941F039B01AC01DA
:10015000C701B6010E941F039B01AC01C501B40198
:100160000E945501FF90EF90DF90CF90BF90AF902D
:100170009F908F900895CF92DF92EF92FF92CF934E
:10018000DF936B017C01C1E0D0E01FC0BE010D2EEA
:10019000000C880B990B0E946A0220E030E048E4D2
:1001A00052E40E94C7010E948200A70196010E94AA
:1001B0001F030E944E012FEF80E792E02150804004
:1001C0009040E1F700C000002196C333D105F4F25E
:1001D000C701B6010E944E01DF91CF91FF90EF90D1
:1001E000DF90CF9008952BEE39EC48E151E40E9466
:1001F0001F030895CF92DF92EF92FF926B017C0173
:1002000020E030E0A9010E94C2011816ACF520E000
:1002100030E048EC53E4C701B6010E941F0320E020
:1002200030E040E752E40E94C70120E030E040E0C7
:1002300051E40E941F039B01AC0160E074E284E77B
:100240009BE40E94C7016B017C0120E03FEF4FE778
:1002500057E40E941A0318164CF40F2EC12CDD240B
:10026000DA94FFE7EF2EF7E4FF2EF02DC701B60179
:100270000E943902CB0102C08FEF9FEFFF90EF90F9
:10028000DF90CF90089520E4209380002AE020930F
:100290008100909389008093880008950E94F30064
:1002A0000E94FA000E94430108955058BB27AA27D4
:1002B0000E946D010C94E0020E94D20238F00E946C
:1002C000D90220F039F49F3F19F426F40C94CF02A0
:1002D0000EF4E095E7FB0C94C902E92F0E94F102AD
:1002E00058F3BA17620773078407950720F079F46B
:1002F000A6F50C9413030EF4E0950B2EBA2FA02D47
:100300000B01B90190010C01CA01A0011124FF27C2
:10031000591B99F0593F50F4503E68F11A16F040BD
:10032000A22F232F342F4427585FF3CF46953795BC
:100330002795A795F0405395C9F77EF41F16BA0B81
:10034000620B730B840BBAF09150A1F0FF0FBB1F2F
:10035000661F771F881FC2F70EC0BA0F621F731F78
:10036000841F48F4879577956795B795F7959E3FD5
:1003700008F0B0CF9395880F08F09927EE0F979566
:10038000879508950E94A50208F481E008950E94CF
:10039000DB010C94E0020E94D90258F00E94D202C4
:1003A00040F029F45F3F29F00C94C90251110C94DC
:1003B00014030C94CF020E94F10268F39923B1F365
:1003C000552391F3951B550BBB27AA27621773077B
:1003D000840738F09F5F5F4F220F331F441FAA1F0F
:1003E000A9F335D00E2E3AF0E0E832D091505040CB
:1003F000E695001CCAF72BD0FE2F29D0660F771F79
:10040000881FBB1F261737074807AB07B0E809F05E
:10041000BB0B802DBF01FF2793585F4F3AF09E3FE3
:10042000510578F00C94C9020C9414035F3FE4F377
:10043000983ED4F3869577956795B795F7959F5F26
:10044000C9F7880F911D9695879597F90895E1E072
:10045000660F771F881FBB1F621773078407BA07D1
:1004600020F0621B730B840BBA0BEE1F88F7E0952C
:1004700008950E94F90288F09F5798F0B92F9927A4
:10048000B751B0F0E1F0660F771F881F991F1AF07F
:10049000BA95C9F714C0B13091F00E941303B1E0CE
:1004A00008950C941303672F782F8827B85F39F0CD
:1004B000B93FCCF3869577956795B395D9F73EF418
:1004C00090958095709561957F4F8F4F9F4F0895C0
:1004D000E89409C097FB3EF49095809570956195DE
:1004E0007F4F8F4F9F4F9923A9F0F92F96E9BB2794
:1004F0009395F695879577956795B795F111F8CF10
:10050000FAF4BB0F11F460FF1BC06F5F7F4F8F4F7A
:100510009F4F16C0882311F096E911C0772321F070
:100520009EE8872F762F05C0662371F096E8862F08
:1005300070E060E02AF09A95660F771F881FDAF75F
:10054000880F9695879597F90895990F0008550F8C
:10055000AA0BE0E8FEEF16161706E807F907C0F049
:1005600012161306E407F50798F0621B730B840B51
:10057000950B39F40A2661F0232B242B252B21F42B
:1005800008950A2609F4A140A6958FEF811D811DCB
:10059000089597F99F6780E870E060E008959FEF05
:1005A00080EC089500240A9416161706180609060A
:1005B000089500240A9412161306140605060895D9
:1005C000092E0394000C11F4882352F0BB0F40F461
:1005D000BF2B11F460FF04C06F5F7F4F8F4F9F4FA1
:1005E000089557FD9058440F551F59F05F3F71F023
:1005F0004795880F97FB991F61F09F3F79F087958A
:100600000895121613061406551FF2CF4695F1DF12
:1006100008C0161617061806991FF1CF86957105A2
:10062000610508940895E894BB2766277727CB01D6
:1006300097F908950E94A50208F48FEF08950E948B
:1006400032030C94E0020E94D20238F00E94D902D8
:1006500020F0952311F00C94C9020C94CF021124C0
:100660000C9414030E94F10270F3959FC1F3950F4F
:1006700050E0551F629FF001729FBB27F00DB11D26
:10068000639FAA27F00DB11DAA1F649F6627B00DB6
:10069000A11D661F829F2227B00DA11D621F739F9F
:1006A000B00DA11D621F839FA00D611D221F749FAD
:1006B0003327A00D611D231F849F600D211D822FF4
:1006C000762F6A2F11249F5750409AF0F1F088231B
:1006D0004AF0EE0FFF1FBB1F661F771F881F915048
:1006E0005040A9F79E3F510580F00C94C9020C942C
:1006F00014035F3FE4F3983ED4F3869577956795AE
:10070000B795F795E7959F5FC1F7FE2B880F911D71
:0C0710009695879597F90895F894FFCF0F
:00000001FF
