:100000000C9456000C9468000C9468000C946800E2
:100010000C9468000C9468000C9468000C946800C0
:100020000C9468000C9468000C9468000C946800B0
:100030000C9468000C9468000C9468000C946800A0
:100040000C9468000C9468000C9468000C94680090
:100050000C9468000C9468000C9468000C94680080
:100060000C9468000C9468000C9468000C94680070
:100070000C9468000C9468000C9468000C94680060
:100080000C9468000C9468000C9468000C94680050
:100090000C9468000C9468000C9468000C94680040
:1000A0000C9468000C9468000C94680011241FBE26
:1000B000CFEFDAE0DEBFCDBF21E0A0E0B1E001C0CC
:1000C0001D92A030B207E1F70E947E000C94FF055C
:1000D0000C940000882321F085B1806485B90895CF
:1000E00085B18F7B85B90895882321F085B1826021
:1000F00085B9089585B18D7F85B9089501E024EA19
:1001000030E741ED52E460E070E080E291E40E946B
:100110009D0024EA30E741ED52E46BED7FE089EC8D
:100120009FE30E940F0120E030E0A90160E070E051
:1001300080E09FE30E94A801FFCF8F929F92AF9231
:10014000BF92CF92DF92EF92FF920F9349015A0133
:100150002BEF34E041E45EE30E943A0420E030E01B
:1001600048E454E40E9492050E94AC04653671058F
:100170008105910540F06B017C0124E6C21AD1088B
:10018000E108F10803C0C12CD12C7601002329F02D
:10019000C501B4010E94D50204C0C501B4010E948A
:1001A0005202C501B4010E94BA03C501B4010E9404
:1001B000C10340E050E0BA010EC0B19BFECF86B350
:1001C000826086BBC19BFECF88B3826088BB4F5FD5
:1001D0005F4F6F4F7F4F4C155D056E057F0568F3D0
:1001E000002329F0C501B4010E94150304C0C50114
:1001F000B4010E94940260E070E0CB010E94BA0357
:1002000060E070E0CB010E94C1030F91FF90EF907E
:10021000DF90CF90BF90AF909F908F9008954F92B6
:100220005F926F927F928F929F92AF92BF92CF9286
:10023000DF92EF92FF920F932B013C0149015A018B
:100240009F772FE832EC45E75DE30E9492052BEFA4
:1002500034E041E45EE30E943A0420E030E048E408
:1002600054E40E9492050E94AC0465367105810534
:10027000910540F06B017C0124E6C21AD108E10827
:10028000F10803C0C12CD12C760120E030E0A90197
:10029000C301B2010E948D0518163CF481E00E9452
:1002A0006A0080E00E94740006C080E00E946A003C
:1002B00081E00E947400002329F0C501B4010E946E
:1002C000D50204C0C501B4010E945202C501B401A7
:1002D0000E94BA03C501B4010E94C10340E050E08E
:1002E000BA010EC0B19BFECF86B3826086BBC19BB4
:1002F000FECF88B3826088BB4F5F5F4F6F4F7F4FE9
:100300004C155D056E057F0568F3002329F0C501D6
:10031000B4010E94150304C0C501B4010E949402F7
:1003200060E070E0CB010E94BA0360E070E0CB01B6
:100330000E94C1030F91FF90EF90DF90CF90BF908C
:10034000AF909F908F907F906F905F904F900895A7
:100350004F925F926F927F928F929F92AF92BF92D5
:10036000CF92DF92EF92FF922B013C01CA01B901BB
:100370002FE832EC45EF5DE30E94920520E030E08B
:1003800040E05FE30E9492056B017C019B01AC01A0
:10039000C301B2010E94C8032FE832EC45EF5CE3D1
:1003A0000E943A044B015C01A3019201C701B6010E
:1003B0000E94C9032FE832EC45EF5CE30E943A0447
:1003C0006B017C0120E030E0A901C501B4010E946D
:1003D0008D05882324F081E00E946A0003C080E03C
:1003E0000E946A0020E030E0A901C701B6010E9426
:1003F0008D05882324F081E00E94740003C080E012
:100400000E947400C501B4019F770E94BA03C7011E
:10041000B6019F770E94C103FF90EF90DF90CF90CD
:10042000BF90AF909F908F907F906F905F904F9014
:1004300008958F929F92AF92BF92CF92DF92EF92E8
:10044000FF926B017C0120E030E040E450E40E9428
:1004500092059B01AC01C701B6010E9492054B01B8
:100460005C01A7019601C701B6010E94C9039B0167
:10047000AC01C701B6010E9492059B01AC01C70106
:10048000B6010E9492059B01AC01C501B4010E9416
:10049000C803FF90EF90DF90CF90BF90AF909F90F8
:1004A0008F9008958F929F92AF92BF92CF92DF92DA
:1004B000EF92FF92CF93DF934B015C01C1E0D0E05C
:1004C00025C0BE010D2E000C880B990B0E94DD0487
:1004D00020E030E048E452E40E943A040E9419020D
:1004E000A50194010E9492056B017C010E94BA0350
:1004F000C701B6010E94C1032FEF80E792E02150AF
:1005000080409040E1F700C000002196C333D10540
:10051000C4F2DF91CF91FF90EF90DF90CF90BF902A
:10052000AF909F908F9008958F929F92AF92BF92BD
:10053000CF92DF92EF92FF92CF93DF934B015C015A
:10054000C1E3D0E025C0BE010D2E000C880B990B35
:100550000E94DD0420E030E048E452E40E943A04C6
:100560000E941902A50194010E9492056B017C0171
:100570000E94BA03C701B6010E94C1032FEF80E7B2
:1005800092E0215080409040E1F700C000002197A8
:10059000DD23CCF6DF91CF91FF90EF90DF90CF90ED
:1005A000BF90AF909F908F9008958F929F92AF923F
:1005B000BF92CF92DF92EF92FF92CF93DF934B01E6
:1005C0005C01C1E0D0E023C0BE010D2E000C880B01
:1005D000990B0E94DD04A50194010E94920520E080
:1005E00030E048E452E40E943A046B017C010E942E
:1005F000BA03C701B6010E94C1032FEF80E792E062
:10060000215080409040E1F700C000002196C333A4
:10061000D105D4F2DF91CF91FF90EF90DF90CF9092
:10062000BF90AF909F908F9008958F929F92AF92BE
:10063000BF92CF92DF92EF92FF92CF93DF934B0165
:100640005C01C1E3D0E023C0BE010D2E000C880B7D
:10065000990B0E94DD04A50194010E94920520E0FF
:1006600030E048E452E40E943A046B017C010E94AD
:10067000BA03C701B6010E94C1032FEF80E792E0E1
:10068000215080409040E1F700C000002197DD2319
:10069000DCF6DF91CF91FF90EF90DF90CF90BF908D
:1006A000AF909F908F9008952BEE39EC48E151E484
:1006B0000E9492050895CF92DF92EF92FF926B0114
:1006C0007C0120E030E0A9010E9435041816ACF549
:1006D00020E030E048E454E4C701B6010E949205EE
:1006E00020E030E040E752E40E943A0420E030E0AD
:1006F00040E051E40E9492059B01AC0160E074E28D
:1007000084E79BE40E943A046B017C0120E03FEF08
:100710004FE757E40E948D0518164CF40F2EC12C9C
:10072000DD24DA94FFE7EF2EF7E4FF2EF02DC7016A
:10073000B6010E94AC04CB0102C08FEF9FEFFF9087
:10074000EF90DF90CF90089520E4209380002AE07E
:10075000209381009093890080938800089520E47D
:10076000209390002AE02093910090939900809329
:10077000980008950E9454030E945B030E94A40302
:1007800008950E9454030E945B030E94AF030895E2
:100790005058BB27AA270E94E0030C9453050E94DF
:1007A000450538F00E944C0520F039F49F3F19F4BC
:1007B00026F40C9442050EF4E095E7FB0C943C05FE
:1007C000E92F0E94640558F3BA176207730784077C
:1007D000950720F079F4A6F50C9486050EF4E095C3
:1007E0000B2EBA2FA02D0B01B90190010C01CA01EB
:1007F000A0011124FF27591B99F0593F50F4503E96
:1008000068F11A16F040A22F232F342F4427585F87
:10081000F3CF469537952795A795F0405395C9F79F
:100820007EF41F16BA0B620B730B840BBAF0915057
:10083000A1F0FF0FBB1F661F771F881FC2F70EC0F6
:10084000BA0F621F731F841F48F4879577956795C9
:10085000B795F7959E3F08F0B0CF9395880F08F0B5
:100860009927EE0F9795879508950E94180508F42B
:1008700081E008950E944E040C9453050E944C059B
:1008800058F00E94450540F029F45F3F29F00C9490
:100890003C0551110C9487050C9442050E94640597
:1008A00068F39923B1F3552391F3951B550BBB279F
:1008B000AA2762177307840738F09F5F5F4F220FE4
:1008C000331F441FAA1FA9F335D00E2E3AF0E0E8DB
:1008D00032D091505040E695001CCAF72BD0FE2F25
:1008E00029D0660F771F881FBB1F261737074807B9
:1008F000AB07B0E809F0BB0B802DBF01FF27935871
:100900005F4F3AF09E3F510578F00C943C050C94F3
:1009100087055F3FE4F3983ED4F386957795679516
:10092000B795F7959F5FC9F7880F911D96958795A5
:1009300097F90895E1E0660F771F881FBB1F6217C4
:1009400073078407BA0720F0621B730B840BBA0B82
:10095000EE1F88F7E09508950E946C0588F09F5778
:1009600098F0B92F9927B751B0F0E1F0660F771FD3
:10097000881F991F1AF0BA95C9F714C0B13091F0C9
:100980000E948605B1E008950C948605672F782FA4
:100990008827B85F39F0B93FCCF38695779567958E
:1009A000B395D9F73EF490958095709561957F4FFA
:1009B0008F4F9F4F0895E89409C097FB3EF49095A0
:1009C0008095709561957F4F8F4F9F4F9923A9F028
:1009D000F92F96E9BB279395F695879577956795B7
:1009E000B795F111F8CFFAF4BB0F11F460FF1BC0FB
:1009F0006F5F7F4F8F4F9F4F16C0882311F096E98E
:100A000011C0772321F09EE8872F762F05C066233B
:100A100071F096E8862F70E060E02AF09A95660FF4
:100A2000771F881FDAF7880F9695879597F90895AD
:100A3000990F0008550FAA0BE0E8FEEF16161706EF
:100A4000E807F907C0F012161306E407F50798F057
:100A5000621B730B840B950B39F40A2661F0232B70
:100A6000242B252B21F408950A2609F4A140A695EC
:100A70008FEF811D811D089597F99F6780E870E0D1
:100A800060E008959FEF80EC089500240A94161604
:100A9000170618060906089500240A94121613066C
:100AA000140605060895092E0394000C11F48823FA
:100AB00052F0BB0F40F4BF2B11F460FF04C06F5F16
:100AC0007F4F8F4F9F4F089557FD9058440F551FEC
:100AD00059F05F3F71F04795880F97FB991F61F0C0
:100AE0009F3F79F087950895121613061406551F37
:100AF000F2CF4695F1DF08C0161617061806991FA3
:100B0000F1CF86957105610508940895E894BB2797
:100B100066277727CB0197F908950E94180508F4F6
:100B20008FEF08950E94A5050C9453050E9445057A
:100B300038F00E944C0520F0952311F00C943C05F0
:100B40000C94420511240C9487050E94640570F3EF
:100B5000959FC1F3950F50E0551F629FF001729F62
:100B6000BB27F00DB11D639FAA27F00DB11DAA1F71
:100B7000649F6627B00DA11D661F829F2227B00DBE
:100B8000A11D621F739FB00DA11D621F839FA00D49
:100B9000611D221F749F3327A00D611D231F849F99
:100BA000600D211D822F762F6A2F11249F575040F0
:100BB0009AF0F1F088234AF0EE0FFF1FBB1F661F6B
:100BC000771F881F91505040A9F79E3F510580F034
:100BD0000C943C050C9487055F3FE4F3983ED4F3F6
:100BE000869577956795B795F795E7959F5FC1F7D8
:100BF000FE2B880F911D9695879597F90895F89487
:020C0000FFCF24
:00000001FF
