S00C00004D4376312E73726563E1
S11300000C9456000C9460000C9460000C946000F6
S11300100C9460000C9460000C9460000C946000DC
S11300200C9460000C9460000C9460000C946000CC
S11300300C9460000C9460000C9460000C946000BC
S11300400C9460000C9460000C9460000C946000AC
S11300500C9460000C9460000C9460000C9460009C
S11300600C9460000C9460000C9460000C9460008C
S11300700C9460000C9460000C9460000C9460007C
S11300800C9460000C9460000C9460000C9460006C
S11300900C9460000C9460000C9460000C9460005C
S11300A00C9460000C9460000C94600011241FBE3A
S11300B0CFEFDAE0DEBFCDBF0E9490000C94FE04C7
S11300C00C940000882321F085B1806485B90895DB
S11300D085B18F7B85B9089584B1806784B985B172
S11300E08F7E85B981E00E9462000895882321F003
S11300F085B1826085B9089585B18D7F85B90895EC
S113010087B1806487B984B1826084B98AB1806818
S11301108AB98BB18F778BB981E00E9476000895FC
S11301200E946C000E94800081E00E94620080E0D6
S11301300E94760000E024EA30E741ED52E460E0FA
S113014070E080E090E40E94A600FFCF8F929F921F
S1130150AF92BF92CF92DF92EF92FF920F93490139
S11301605A012BEF34E041E45EE30E94390320E0BE
S113017030E048E454E40E9491040E94AB036536E5
S113018071058105910540F06B017C0124E6C21ADA
S1130190D108E108F10803C0C12CD12C7601002359
S11301A029F0C501B4010E94D40104C0C501B40101
S11301B00E945101C501B4010E94B902C501B401F4
S11301C00E94C00240E050E0BA010EC0B19BFECFD5
S11301D086B3826086BBC19BFECF88B3826088BB36
S11301E04F5F5F4F6F4F7F4F4C155D056E057F0569
S11301F068F3002329F0C501B4010E94140204C06D
S1130200C501B4010E94930160E070E0CB010E943B
S1130210B90260E070E0CB010E94C0020F91FF9030
S1130220EF90DF90CF90BF90AF909F908F90089504
S11302308F929F92AF92BF92CF92DF92EF92FF92F2
S11302406B017C0120E030E040E450E40E94910422
S11302509B01AC01C701B6010E9491044B015C01F2
S1130260A7019601C701B6010E94C8029B01AC0117
S1130270C701B6010E9491049B01AC01C701B601FC
S11302800E9491049B01AC01C501B4010E94C70204
S1130290FF90EF90DF90CF90BF90AF909F908F90A2
S11302A008958F929F92AF92BF92CF92DF92EF9276
S11302B0FF92CF93DF934B015C01C1E0D0E025C0F6
S11302C0BE010D2E000C880B990B0E94DC0320E06C
S11302D030E048E452E40E9439030E941801A50169
S11302E094010E9491046B017C010E94B902C70130
S11302F0B6010E94C0022FEF80E792E021508040B7
S11303009040E1F700C000002196C333D105C4F248
S1130310DF91CF91FF90EF90DF90CF90BF90AF909F
S11303209F908F9008958F929F92AF92BF92CF9299
S1130330DF92EF92FF92CF93DF934B015C01C1E315
S1130340D0E025C0BE010D2E000C880B990B0E9435
S1130350DC0320E030E048E452E40E9439030E94C8
S11303601801A50194010E9491046B017C010E9473
S1130370B902C701B6010E94C0022FEF80E792E0E4
S1130380215080409040E1F700C000002197DD2318
S1130390CCF6DF91CF91FF90EF90DF90CF90BF909C
S11303A0AF909F908F9008958F929F92AF92BF923B
S11303B0CF92DF92EF92FF92CF93DF934B015C01D8
S11303C0C1E0D0E023C0BE010D2E000C880B990BB8
S11303D00E94DC03A50194010E94910420E030E016
S11303E048E452E40E9439036B017C010E94B90283
S11303F0C701B6010E94C0022FEF80E792E02150AE
S113040080409040E1F700C000002196C333D1053D
S1130410D4F2DF91CF91FF90EF90DF90CF90BF9017
S1130420AF909F908F9008958F929F92AF92BF92BA
S1130430CF92DF92EF92FF92CF93DF934B015C0157
S1130440C1E3D0E023C0BE010D2E000C880B990B34
S11304500E94DC03A50194010E94910420E030E095
S113046048E452E40E9439036B017C010E94B90202
S1130470C701B6010E94C0022FEF80E792E021502D
S113048080409040E1F700C000002197DD23DCF6B6
S1130490DF91CF91FF90EF90DF90CF90BF90AF901E
S11304A09F908F9008952BEE39EC48E151E40E941F
S11304B091040895CF92DF92EF92FF926B017C0139
S11304C020E030E0A9010E9434031816ACF520E0C6
S11304D030E048E454E4C701B6010E94910420E0EE
S11304E030E040E752E40E94390320E030E040E08D
S11304F051E40E9491049B01AC0160E074E284E742
S11305009BE40E9439036B017C0120E03FEF4FE73D
S113051057E40E948C0418164CF40F2EC12CDD24D1
S1130520DA94FFE7EF2EF7E4FF2EF02DC701B601B2
S11305300E94AB03CB0102C08FEF9FEFFF90EF90BF
S1130540DF90CF90089520E4209380002AE0209348
S113055081009093890080938800089520E420937B
S113056090002AE020939100909399008093980042
S113057008950E9453020E945A020E94A302089501
S11305800E9453020E945A020E94AE0208955058DB
S1130590BB27AA270E94DF020C9452040E94440441
S11305A038F00E944B0420F039F49F3F19F426F4EC
S11305B00C9441040EF4E095E7FB0C943B04E92F02
S11305C00E94630458F3BA176207730784079507F8
S11305D020F079F4A6F50C9485040EF4E0950B2E26
S11305E0BA2FA02D0B01B90190010C01CA01A00181
S11305F01124FF27591B99F0593F50F4503E68F1DC
S11306001A16F040A22F232F342F4427585FF3CF1C
S1130610469537952795A795F0405395C9F77EF4ED
S11306201F16BA0B620B730B840BBAF09150A1F036
S1130630FF0FBB1F661F771F881FC2F70EC0BA0FBC
S1130640621F731F841F48F4879577956795B79544
S1130650F7959E3F08F0B0CF9395880F08F099273F
S1130660EE0F9795879508950E94170408F481E08A
S113067008950E944D030C9452040E944B0458F0B8
S11306800E94440440F029F45F3F29F00C943B0499
S113069051110C9486040C9441040E94630468F381
S11306A09923B1F3552391F3951B550BBB27AA2727
S11306B062177307840738F09F5F5F4F220F331F61
S11306C0441FAA1FA9F335D00E2E3AF0E0E832D029
S11306D091505040E695001CCAF72BD0FE2F29D02C
S11306E0660F771F881FBB1F261737074807AB07FE
S11306F0B0E809F0BB0B802DBF01FF2793585F4F73
S11307003AF09E3F510578F00C943B040C94860417
S11307105F3FE4F3983ED4F3869577956795B79554
S1130720F7959F5FC9F7880F911D9695879597F95F
S11307300895E1E0660F771F881FBB1F62177307D8
S11307408407BA0720F0621B730B840BBA0BEE1FED
S113075088F7E09508950E946B0488F09F5798F0FD
S1130760B92F9927B751B0F0E1F0660F771F881FB2
S1130770991F1AF0BA95C9F714C0B13091F00E94CC
S11307808504B1E008950C948504672F782F882799
S1130790B85F39F0B93FCCF3869577956795B395F3
S11307A0D9F73EF490958095709561957F4F8F4F62
S11307B09F4F0895E89409C097FB3EF49095809567
S11307C0709561957F4F8F4F9F4F9923A9F0F92F13
S11307D096E9BB279395F695879577956795B79591
S11307E0F111F8CFFAF4BB0F11F460FF1BC06F5F77
S11307F07F4F8F4F9F4F16C0882311F096E911C089
S1130800772321F09EE8872F762F05C0662371F0A9
S113081096E8862F70E060E02AF09A95660F771FBD
S1130820881FDAF7880F9695879597F90895990F99
S11308300008550FAA0BE0E8FEEF16161706E807A6
S1130840F907C0F012161306E407F50798F0621BC7
S1130850730B840B950B39F40A2661F0232B242B9C
S1130860252B21F408950A2609F4A140A6958FEFBB
S1130870811D811D089597F99F6780E870E060E00D
S113088008959FEF80EC089500240A941616170625
S113089018060906089500240A941216130614066D
S11308A005060895092E0394000C11F4882352F0D0
S11308B0BB0F40F4BF2B11F460FF04C06F5F7F4F88
S11308C08F4F9F4F089557FD9058440F551F59F06F
S11308D05F3F71F04795880F97FB991F61F09F3F29
S11308E079F087950895121613061406551FF2CF52
S11308F04695F1DF08C0161617061806991FF1CFA2
S113090086957105610508940895E894BB276627C8
S11309107727CB0197F908950E94170408F48FEF05
S113092008950E94A4040C9452040E94440438F0D4
S11309300E944B0420F0952311F00C943B040C947A
S1130940410411240C9486040E94630470F3959F5F
S1130950C1F3950F50E0551F629FF001729FBB27B2
S1130960F00DB11D639FAA27F00DB11DAA1F649F4E
S11309706627B00DA11D661F829F2227B00DA11D01
S1130980621F739FB00DA11D621F839FA00D611D87
S1130990221F749F3327A00D611D231F849F600DA8
S11309A0211D822F762F6A2F11249F5750409AF0D1
S11309B0F1F088234AF0EE0FFF1FBB1F661F771F5D
S11309C0881F91505040A9F79E3F510580F00C9428
S11309D03B040C9486045F3FE4F3983ED4F386957D
S11309E077956795B795F795E7959F5FC1F7FE2BC8
S11309F0880F911D9695879597F90895F894FFCFE0
S9030000FC
