S00C00004D4376312E73726563E1
S11300000C9456000C9468000C9468000C946800DE
S11300100C9468000C9468000C9468000C946800BC
S11300200C9468000C9468000C9468000C946800AC
S11300300C9468000C9468000C9468000C9468009C
S11300400C9468000C9468000C9468000C9468008C
S11300500C9468000C9468000C9468000C9468007C
S11300600C9468000C9468000C9468000C9468006C
S11300700C9468000C9468000C9468000C9468005C
S11300800C9468000C9468000C9468000C9468004C
S11300900C9468000C9468000C9468000C9468003C
S11300A00C9468000C9468000C94680011241FBE22
S11300B0CFEFDAE0DEBFCDBF21E0A0E0B1E001C0C8
S11300C01D92A031B207E1F70E9492000C9402063F
S11300D00C94000084B1806784B985B18F7E85B9A2
S11300E00895882321F085B1806485B9089585B188
S11300F08F7B85B9089587B1806487B984B18260A4
S113010084B98AB180688AB98BB18F778BB9089525
S1130110882321F085B1826085B9089585B18D7FEA
S113012085B908950E946A000E947B0080E00E94C5
S1130130710080E00E94880001E020E030E048E4A3
S113014052E461E77DE38AEE9FE30E940A01FFCF58
S11301504F925F926F927F928F929F92AF92BF92D3
S1130160CF92DF92EF92FF920F931F93CF93DF937F
S11301702B013C018A01C1E0D0E0C12CD12C7601D5
S113018033C0BE010D2E000C880B990B0E94E004B5
S1130190A30192010E9495054B015C01B80180E026
S11301A090E00E94DE049B01AC01C501B4010E94F1
S11301B03D0420E030E040E251E40E943D0426EB9F
S11301C033EF4DE75DE30E9495052DEC3CEC4CE4E8
S11301D05DE30E9495059B01AC01C701B6010E9435
S11301E0CC036B017C0121960C171D0750F6C70147
S11301F0B601DF91CF911F910F91FF90EF90DF90A7
S1130200CF90BF90AF909F908F907F906F905F90B2
S11302104F9008954F925F926F927F928F929F9228
S1130220AF92BF92CF92DF92EF92FF920F932B0186
S11302303C0149015A0142E350E0C501B4010E9466
S1130240A8006B017C019B01AC01C301B2010E94B7
S1130250CB03A70196010E94CB036B017C0120E034
S113026030E0A9010E94380488231CF4C12CD12C4D
S1130270760124E134E747EC5EE3C701B6010E944E
S11302803D0420E030E040E251E40E94950520E086
S113029030E048E454E40E9495050E94AF046B01E9
S11302A07C01109204011092050110920601109233
S11302B007011092000110920101109202011092A4
S11302C00301002329F0C501B4010E949F0204C068
S11302D0C501B4010E941C02C501B4010E94AD0312
S11302E0C501B4010E94BC0330C0B19B16C086B3E3
S11302F0826086BB8091040190910501A091060162
S1130300B09107010196A11DB11D80930401909342
S11303100501A0930601B0930701C19B16C088B3E1
S1130320826088BB8091000190910101A09102013B
S1130330B09103010196A11DB11D8093000190931A
S11303400101A0930201B0930301809104019091F3
S11303500501A0910601B09107018C159D05AE051C
S1130360BF0570F48091000190910101A0910201F8
S1130370B09103018C159D05AE05BF0508F4B5CFFA
S1130380002329F0C501B4010E94DF0204C0C501A5
S1130390B4010E945E0260E070E0CB010E94AD03F4
S11303A060E070E0CB010E94BC030F91FF90EF90DE
S11303B0DF90CF90BF90AF909F908F907F906F9081
S11303C05F904F9008958F929F92AF92BF92CF9279
S11303D0DF92EF92FF926B017C0120E030E040E479
S11303E050E40E9495059B01AC01C701B6010E942F
S11303F095054B015C01A7019601C701B6010E9456
S1130400CC039B01AC01C701B6010E9495059B0179
S1130410AC01C701B6010E9495059B01AC01C50161
S1130420B4010E94CB03FF90EF90DF90CF90BF9078
S1130430AF909F908F9008958F929F92AF92BF92AA
S1130440CF92DF92EF92FF92CF93DF934B015C0147
S1130450C1E0D0E025C0BE010D2E000C880B990B25
S11304600E94E00420E030E048E452E40E943D04AD
S11304700E94E301A50194010E9495056B017C0192
S11304800E94AD03C701B6010E94BC032FEF80E7B1
S113049092E0215080409040E1F700C00000219696
S11304A0C333D105C4F2DF91CF91FF90EF90DF9079
S11304B0CF90BF90AF909F908F9008958F929F920E
S11304C0AF92BF92CF92DF92EF92FF92CF93DF93DE
S11304D04B015C01C1E3D0E025C0BE010D2E000C30
S11304E0880B990B0E94E00420E030E048E452E4D9
S11304F00E943D040E94E301A50194010E94950518
S11305006B017C010E94AD03C701B6010E94BC03CC
S11305102FEF80E792E0215080409040E1F700C047
S113052000002197DD23CCF6DF91CF91FF90EF906F
S1130530DF90CF90BF90AF909F908F9008958F924F
S11305409F92AF92BF92CF92DF92EF92FF92CF939E
S1130550DF934B015C01C1E0D0E023C0BE010D2E4E
S1130560000C880B990B0E94E004A50194010E94E1
S1130570950520E030E048E452E40E943D046B011C
S11305807C010E94AD03C701B6010E94BC032FEF9A
S113059080E792E0215080409040E1F700C00000E5
S11305A02196C333D105D4F2DF91CF91FF90EF9020
S11305B0DF90CF90BF90AF909F908F9008958F92CF
S11305C09F92AF92BF92CF92DF92EF92FF92CF931E
S11305D0DF934B015C01C1E3D0E023C0BE010D2ECB
S11305E0000C880B990B0E94E004A50194010E9461
S11305F0950520E030E048E452E40E943D046B019C
S11306007C010E94AD03C701B6010E94BC032FEF19
S113061080E792E0215080409040E1F700C0000064
S11306202197DD23DCF6DF91CF91FF90EF90DF90EF
S1130630CF90BF90AF909F908F9008952BEE39ECA0
S113064048E151E40E9495050895CF92DF92EF921C
S1130650FF926B017C0120E030E0A9010E94380484
S113066018160CF040C020E030E048E454E4C70120
S1130670B6010E94950520E030E040E752E40E9474
S11306803D046B017C0120E030E0A9010E943804A4
S1130690181664F520E030E040E051E4C701B601EB
S11306A00E9495059B01AC0160E074E284E79BE441
S11306B00E943D046B017C0120E03FEF4FE757E4CB
S11306C00E94900518164CF40F2EC12CDD24DA94E8
S11306D0FFE7EF2EF7E4FF2EF02DC701B6010E94CD
S11306E0AF04CB0105C080E090E002C080E090E060
S11306F0FF90EF90DF90CF900895009759F4E0E8D1
S1130700F0E080818F7B8083E1E8F0E08081887F66
S11307108083089520E4209380002AE020938100C0
S113072090938900809388000895009759F4E0E934
S1130730F0E080818F7B8083E1E9F0E08081887F35
S11307408083089520E4209390002AE02093910070
S11307509093990080939800089560930C0170938E
S11307600D0180930E0190930F010E941E030E94BD
S113077025030E947D030895609308017093090185
S113078080930A0190930B010E941E030E9425038B
S11307900E94950308955058BB27AA270E94E3039B
S11307A00C9456050E94480538F00E944F0520F02D
S11307B039F49F3F19F426F40C9445050EF4E095A2
S11307C0E7FB0C943F05E92F0E94670558F3BA171D
S11307D0620773078407950720F079F4A6F50C9453
S11307E089050EF4E0950B2EBA2FA02D0B01B9014B
S11307F090010C01CA01A0011124FF27591B99F093
S1130800593F50F4503E68F11A16F040A22F232F9E
S1130810342F4427585FF3CF469537952795A795EE
S1130820F0405395C9F77EF41F16BA0B620B730B95
S1130830840BBAF09150A1F0FF0FBB1F661F771F06
S1130840881FC2F70EC0BA0F621F731F841F48F4BB
S1130850879577956795B795F7959E3F08F0B0CF44
S11308609395880F08F09927EE0F9795879508952B
S11308700E941B0508F481E008950E9451040C9421
S113088056050E944F0558F00E94480540F029F48F
S11308905F3F29F00C943F0551110C948A050C9488
S11308A045050E94670568F39923B1F3552391F335
S11308B0951B550BBB27AA2762177307840738F0CB
S11308C09F5F5F4F220F331F441FAA1FA9F335D028
S11308D00E2E3AF0E0E832D091505040E695001CDC
S11308E0CAF72BD0FE2F29D0660F771F881FBB1F96
S11308F0261737074807AB07B0E809F0BB0B802D74
S1130900BF01FF2793585F4F3AF09E3F510578F09F
S11309100C943F050C948A055F3FE4F3983ED4F3AE
S1130920869577956795B795F7959F5FC9F7880F73
S1130930911D9695879597F90895E1E0660F771FC5
S1130940881FBB1F621773078407BA0720F0621B56
S1130950730B840BBA0BEE1F88F7E09508950E9481
S11309606F0588F09F5798F0B92F9927B751B0F0C9
S1130970E1F0660F771F881F991F1AF0BA95C9F71F
S113098014C0B13091F00E948905B1E008950C942F
S11309908905672F782F8827B85F39F0B93FCCF3E2
S11309A0869577956795B395D9F73EF4909580959C
S11309B0709561957F4F8F4F9F4F0895E89409C0BC
S11309C097FB3EF490958095709561957F4F8F4F7E
S11309D09F4F9923A9F0F92F96E9BB279395F69594
S11309E0879577956795B795F111F8CFFAF4BB0F12
S11309F011F460FF1BC06F5F7F4F8F4F9F4F16C076
S1130A00882311F096E911C0772321F09EE8872FFF
S1130A10762F05C0662371F096E8862F70E060E0BB
S1130A202AF09A95660F771F881FDAF7880F969534
S1130A30879597F90895990F0008550FAA0BE0E8D8
S1130A40FEEF16161706E807F907C0F0121613068C
S1130A50E407F50798F0621B730B840B950B39F4CC
S1130A600A2661F0232B242B252B21F408950A2632
S1130A7009F4A140A6958FEF811D811D089597F972
S1130A809F6780E870E060E008959FEF80EC089530
S1130A9000240A9416161706180609060895002459
S1130AA00A9412161306140605060895092E0394D3
S1130AB0000C11F4882352F0BB0F40F4BF2B11F447
S1130AC060FF04C06F5F7F4F8F4F9F4F089557FDA6
S1130AD09058440F551F59F05F3F71F04795880FA8
S1130AE097FB991F61F09F3F79F08795089512163F
S1130AF013061406551FF2CF4695F1DF08C01616EB
S1130B0017061806991FF1CF86957105610508949B
S1130B100895E894BB2766277727CB0197F90895B2
S1130B200E941B0508F48FEF08950E94A8050C94F9
S1130B3056050E94480538F00E944F0520F0952381
S1130B4011F00C943F050C94450511240C948A056E
S1130B500E94670570F3959FC1F3950F50E0551FF0
S1130B60629FF001729FBB27F00DB11D639FAA27FE
S1130B70F00DB11DAA1F649F6627B00DA11D661F4D
S1130B80829F2227B00DA11D621F739FB00DA11D6E
S1130B90621F839FA00D611D221F749F3327A00D28
S1130BA0611D231F849F600D211D822F762F6A2FC4
S1130BB011249F5750409AF0F1F088234AF0EE0F29
S1130BC0FF1FBB1F661F771F881F91505040A9F756
S1130BD09E3F510580F00C943F050C948A055F3FBD
S1130BE0E4F3983ED4F3869577956795B795F79592
S1130BF0E7959F5FC1F7FE2B880F911D969587950A
S10B0C0097F90895F894FFCF61
S9030000FC
