S015000052656D6F7465436F6E74726F6C2E73726563C2
S11300000C9456000C9473000C9473000C947300BD
S11300100C9473000C9473000C9473000C94730090
S11300200C9473000C9473000C9473000C94730080
S11300300C9473000C9473000C9473000C94730070
S11300400C9473000C9473000C9473000C94730060
S11300500C9473000C9473000C9473000C94730050
S11300600C9473000C9473000C9473000C94730040
S11300700C9473000C9473000C9473000C94730030
S11300800C9473000C9473000C9473000C94730020
S11300900C9473000C9473000C9473000C94730010
S11300A00C9473000C9473000C94730011241FBE01
S11300B0CFEFDAE0DEBFCDBF11E0A0E0B1E0E0E5D4
S11300C0FCE002C005900D92A831B107D9F721E0F8
S11300D0A8E1B1E001C01D92A132B207E1F70E948C
S11300E09D010C9426060C940000A0E0B0E0880F5B
S11300F0991FAA1FBB1F880F991FAA1FBB1F9C0112
S1130100AD01220F331F441F551F220F331F441FFD
S1130110551F60E074E284EF90E00E9404062150D1
S113012031093093CD002093CC0088E18093C9003D
S113013086E08093CA0008959091C80095FFFCCF93
S11301408093CE000895CF93DF93EC018BB180614F
S11301508BB98FE99FE00197F1F700C0000003C05D
S113016021960E949C0088818111FACF8FE99FE03B
S11301700197F1F700C000008BB18F7E8BB9DF913E
S1130180CF9108958AB180618AB98BB18F7E8BB982
S113019080E895E20E9475001092180108950F936B
S11301A08091C80088230CF09EC09091CE00E0910D
S11301B01801E73068F481E08E0F80931801F0E0B5
S11301C0E75EFE4F9083E82FF0E0E75EFE4F10827B
S11301D080911801833008F480C090E0FC01EA5E4D
S11301E0FE4F20812B3109F078C0FC01E95EFE4FFF
S11301F020812B3509F071C0FC01E85EFE4F80813F
S1130200823411F118F4813439F065C08334A1F1DA
S1130210843409F449C05FC080E091E00E94A300E7
S113022080E090E00E947C0180E090E00E949301D5
S113023001E024EA30E741ED52E460E070E080EA56
S113024090E40E94AC0147C084E091E00E94A300C6
S113025081E090E00E947C0181E090E00E949301A3
S113026001E024EA30E741ED52E460E070E080EA26
S113027090E40E94AC012FC08AE091E00E94A300A8
S113028080E090E00E947C0181E090E00E94930174
S113029001E024EA30E741ED52E460E070E080EAF6
S11302A090E40E94AC0117C081E191E00E94A30098
S11302B081E090E00E947C0180E090E00E94930144
S11302C001E024EA30E741ED52E460E070E080EAC6
S11302D090E40E94AC0110921801809118018730BB
S11302E010F0109218010F91089584B1806784B9B9
S11302F085B18F7E85B90895882321F085B1806406
S113030085B9089585B18F7B85B9089587B18064D7
S113031087B984B1826084B98AB180688AB98BB1A3
S11303208F778BB90895882321F085B1826085B9D0
S1130330089585B18D7F85B908950E94750180E087
S11303400E947C010E94860181E00E9493010E9428
S1130350C2000E94CF00FDCF8F929F92AF92BF92B6
S1130360CF92DF92EF92FF920F9349015A012BEF44
S113037034E041E45EE30E943F0420E030E048E4DE
S113038054E40E9497050E94B10465367105810505
S1130390910540F06B017C0124E6C21AD108E10802
S11303A0F10803C0C12CD12C7601002329F0C5012A
S11303B0B4010E94DA0204C0C501B4010E945702CC
S11303C0C501B4010E94BF03C501B4010E94C60364
S11303D040E050E0BA010EC0B19BFECF86B382600C
S11303E086BBC19BFECF88B3826088BB4F5F5F4FE3
S11303F06F4F7F4F4C155D056E057F0568F3002335
S113040029F0C501B4010E941A0304C0C501B40156
S11304100E94990260E070E0CB010E94BF0360E09B
S113042070E0CB010E94C6030F91FF90EF90DF9024
S1130430CF90BF90AF909F908F9008958F929F928E
S1130440AF92BF92CF92DF92EF92FF926B017C0149
S113045020E030E040E450E40E9497059B01AC01A9
S1130460C701B6010E9497054B015C01A7019601E3
S1130470C701B6010E94CE039B01AC01C701B601BE
S11304800E9497059B01AC01C701B6010E94970524
S11304909B01AC01C501B4010E94CD03FF90EF9014
S11304A0DF90CF90BF90AF909F908F9008958F92E0
S11304B09F92AF92BF92CF92DF92EF92FF92CF932F
S11304C0DF934B015C01C1E0D0E025C0BE010D2EDD
S11304D0000C880B990B0E94E20420E030E048E411
S11304E052E40E943F040E941E02A50194010E944E
S11304F097056B017C010E94BF03C701B6010E94EE
S1130500C6032FEF80E792E0215080409040E1F74E
S113051000C000002196C333D105C4F2DF91CF910E
S1130520FF90EF90DF90CF90BF90AF909F908F900F
S113053008958F929F92AF92BF92CF92DF92EF92E3
S1130540FF92CF93DF934B015C01C1E3D0E025C060
S1130550BE010D2E000C880B990B0E94E20420E0D2
S113056030E048E452E40E943F040E941E02A501C8
S113057094010E9497056B017C010E94BF03C7018F
S1130580B6010E94C6032FEF80E792E0215080401D
S11305909040E1F700C000002197DD23CCF6DF9105
S11305A0CF91FF90EF90DF90CF90BF90AF909F904E
S11305B08F9008958F929F92AF92BF92CF92DF92C5
S11305C0EF92FF92CF93DF934B015C01C1E0D0E047
S11305D023C0BE010D2E000C880B990B0E94E2046F
S11305E0A50194010E94970520E030E048E452E41C
S11305F00E943F046B017C010E94BF03C701B60146
S11306000E94C6032FEF80E792E021508040904083
S1130610E1F700C000002196C333D105D4F2DF9185
S1130620CF91FF90EF90DF90CF90BF90AF909F90CD
S11306308F9008958F929F92AF92BF92CF92DF9244
S1130640EF92FF92CF93DF934B015C01C1E3D0E0C3
S113065023C0BE010D2E000C880B990B0E94E204EE
S1130660A50194010E94970520E030E048E452E49B
S11306700E943F046B017C010E94BF03C701B601C5
S11306800E94C6032FEF80E792E021508040904003
S1130690E1F700C000002197DD23DCF6DF91CF9164
S11306A0FF90EF90DF90CF90BF90AF909F908F908E
S11306B008952BEE39EC48E151E40E949705089522
S11306C0CF92DF92EF92FF926B017C0120E030E049
S11306D0A9010E943A041816ACF520E030E048E481
S11306E054E4C701B6010E94970520E030E040E7DA
S11306F052E40E943F0420E030E040E051E40E94D4
S113070097059B01AC0160E074E284E79BE40E94DE
S11307103F046B017C0120E03FEF4FE757E40E9468
S1130720920518164CF40F2EC12CDD24DA94FFE741
S1130730EF2EF7E4FF2EF02DC701B6010E94B1049D
S1130740CB0102C08FEF9FEFFF90EF90DF90CF902F
S1130750089520E4209380002AE020938100909360
S1130760890080938800089520E4209390002AE073
S113077020939100909399008093980008950E948B
S113078059030E9460030E94A90308950E9459031B
S11307900E9460030E94B40308955058BB27AA27FF
S11307A00E94E5030C9458050E944A0538F00E9403
S11307B0510520F039F49F3F19F426F40C944705B1
S11307C00EF4E095E7FB0C944105E92F0E946905BE
S11307D058F3BA17620773078407950720F079F472
S11307E0A6F50C948B050EF4E0950B2EBA2FA02DD4
S11307F00B01B90190010C01CA01A0011124FF27CA
S1130800591B99F0593F50F4503E68F11A16F040C4
S1130810A22F232F342F4427585FF3CF46953795C3
S11308202795A795F0405395C9F77EF41F16BA0B88
S1130830620B730B840BBAF09150A1F0FF0FBB1F36
S1130840661F771F881FC2F70EC0BA0F621F731F7F
S1130850841F48F4879577956795B795F7959E3FDC
S113086008F0B0CF9395880F08F09927EE0F97956D
S1130870879508950E941D0508F481E008950E945B
S113088053040C9458050E94510558F00E944A05DF
S113089040F029F45F3F29F00C94410551110C9468
S11308A08C050C9447050E94690568F39923B1F3FC
S11308B0552391F3951B550BBB27AA276217730782
S11308C0840738F09F5F5F4F220F331F441FAA1F16
S11308D0A9F335D00E2E3AF0E0E832D091505040D2
S11308E0E695001CCAF72BD0FE2F29D0660F771F80
S11308F0881FBB1F261737074807AB07B0E809F066
S1130900BB0B802DBF01FF2793585F4F3AF09E3FEA
S1130910510578F00C9441050C948C055F3FE4F389
S1130920983ED4F3869577956795B795F7959F5F2D
S1130930C9F7880F911D9695879597F90895E1E079
S1130940660F771F881FBB1F621773078407BA07D8
S113095020F0621B730B840BBA0BEE1F88F7E09533
S113096008950E94710588F09F5798F0B92F992730
S1130970B751B0F0E1F0660F771F881F991F1AF086
S1130980BA95C9F714C0B13091F00E948B05B1E05B
S113099008950C948B05672F782F8827B85F39F05A
S11309A0B93FCCF3869577956795B395D9F73EF41F
S11309B090958095709561957F4F8F4F9F4F0895C7
S11309C0E89409C097FB3EF49095809570956195E5
S11309D07F4F8F4F9F4F9923A9F0F92F96E9BB279B
S11309E09395F695879577956795B795F111F8CF17
S11309F0FAF4BB0F11F460FF1BC06F5F7F4F8F4F82
S1130A009F4F16C0882311F096E911C0772321F077
S1130A109EE8872F762F05C0662371F096E8862F0F
S1130A2070E060E02AF09A95660F771F881FDAF766
S1130A30880F9695879597F90895990F0008550F93
S1130A40AA0BE0E8FEEF16161706E807F907C0F050
S1130A5012161306E407F50798F0621B730B840B58
S1130A60950B39F40A2661F0232B242B252B21F432
S1130A7008950A2609F4A140A6958FEF811D811DD2
S1130A80089597F99F6780E870E060E008959FEF0C
S1130A9080EC089500240A94161617061806090611
S1130AA0089500240A9412161306140605060895E0
S1130AB0092E0394000C11F4882352F0BB0F40F468
S1130AC0BF2B11F460FF04C06F5F7F4F8F4F9F4FA8
S1130AD0089557FD9058440F551F59F05F3F71F02A
S1130AE04795880F97FB991F61F09F3F79F0879591
S1130AF00895121613061406551FF2CF4695F1DF1A
S1130B0008C0161617061806991FF1CF86957105A9
S1130B10610508940895E894BB2766277727CB01DD
S1130B2097F908950E941D0508F48FEF08950E9417
S1130B30AA050C9458050E944A0538F00E945105F4
S1130B4020F0952311F00C9441050C9447051124D1
S1130B500C948C050E94690570F3959FC1F3950F61
S1130B6050E0551F629FF001729FBB27F00DB11D2D
S1130B70639FAA27F00DB11DAA1F649F6627B00DBD
S1130B80A11D661F829F2227B00DA11D621F739FA6
S1130B90B00DA11D621F839FA00D611D221F749FB4
S1130BA03327A00D611D231F849F600D211D822FFB
S1130BB0762F6A2F11249F5750409AF0F1F0882322
S1130BC04AF0EE0FFF1FBB1F661F771F881F91504F
S1130BD05040A9F79E3F510580F00C9441050C94B8
S1130BE08C055F3FE4F3983ED4F38695779567953B
S1130BF0B795F795E7959F5FC1F7FE2B880F911D79
S1130C009695879597F90895A1E21A2EAA1BBB1B06
S1130C10FD010DC0AA1FBB1FEE1FFF1FA217B307C4
S1130C20E407F50720F0A21BB30BE40BF50B661FDA
S1130C30771F881F991F1A9469F76095709580959E
S1130C4090959B01AC01BD01CF010895F894FFCFAD
S1130C5075700A00646F776E0A0072696768740AB7
S10B0C60006C6566740A0000D3
S9030000FC
