S015000052656D6F7465436F6E74726F6C2E73726563C2
S11300000C9456000C9473000C9473000C947300BD
S11300100C9473000C9473000C9473000C94730090
S11300200C9473000C9473000C9473000C94730080
S11300300C9473000C9473000C9473000C94730070
S11300400C9473000C9473000C9473000C94730060
S11300500C9473000C94D9000C9473000C947300EA
S11300600C9473000C9473000C9473000C94730040
S11300700C9473000C9473000C9473000C94730030
S11300800C9473000C9473000C9473000C94730020
S11300900C9473000C9473000C9473000C94730010
S11300A00C9473000C9473000C94730011241FBE01
S11300B0CFEFDAE0DEBFCDBF11E0A0E0B1E0EAE7C8
S11300C0F9E002C005900D92A830B107D9F721E0FC
S11300D0A8E0B1E001C01D92A432B207E1F70E948A
S11300E09D000C94BB040C94000084B1806784B917
S11300F085B18F7E85B90895882321F085B1806408
S113010085B9089585B18F7B85B9089587B18064D9
S113011087B984B1826084B98AB180688AB98BB1A5
S11301208F778BB90895882321F085B1826085B9D2
S1130130089585B18D7F85B908950E9475000E9448
S1130140860080E00E947C0080E00E949300FFCF44
S113015010921B0110921A011092190110921401AD
S113016010921501109216011092170110921001AD
S113017010921101109212011092130110920C01AD
S113018010920D0110920E0110920F0110920801AD
S11301901092090110920A0110920B0160E070E0C4
S11301A0CB010E94A30260E070E0CB010E94B20286
S11301B008951F920F920FB60F9211248F929F925F
S11301C0AF92BF92CF92DF92EF92FF922F933F9321
S11301D04F935F936F937F938F939F93AF93BF934B
S11301E0EF93FF93809104018823D1F080911B0148
S11301F08823B1F08091190190911A01019690938E
S11302001A01809319012091190130911A018091EA
S11302100501909106012817390710F00E94A800E3
S113022080911801882309F4E6C080900C01909015
S11302300D01A0900E01B0900F01C0901401D09058
S11302401501E0901601F0901701A7019601C50170
S1130250B4010E942E0388232CF5209100013091D3
S113026001014091020150910301C501B4010E94B2
S1130270C2029B01AC0160930C0170930D01809349
S11302800E0190930F01C701B6010E942E0388232B
S1130290ACF5C0920C01D0920D01E0920E01F092E7
S11302A00F012CC0A7019601C501B4010E944904A5
S11302B0181624F5209100013091010140910201AA
S11302C050910301C501B4010E94C1029B01AC011C
S11302D060930C0170930D0180930E0190930F01B4
S11302E0C701B6010E944904181644F4C0920C01D7
S11302F0D0920D01E0920E01F0920F01809008015E
S113030090900901A0900A01B0900B01C0901001D7
S1130310D0901101E0901201F0901301A701960111
S1130320C501B4010E942E0388232CF520910001FD
S1130330309101014091020150910301C501B401C2
S11303400E94C2029B01AC016093080170930901F1
S113035080930A0190930B01C701B6010E942E03FA
S11303608823ACF5C0920801D0920901E0920A01F9
S1130370F0920B012CC0A7019601C501B4010E94A3
S11303804904181624F5209100013091010140918F
S1130390020150910301C501B4010E94C1029B01F5
S11303A0AC01609308017093090180930A01909352
S11303B00B01C701B6010E944904181644F4C09207
S11303C00801D0920901E0920A01F0920B016091B8
S11303D00C0170910D0180910E0190910F010E940A
S11303E0A302609108017091090180910A01909122
S11303F00B010E94B202FF91EF91BF91AF919F91C7
S11304008F917F916F915F914F913F912F91FF90C9
S1130410EF90DF90CF90BF90AF909F908F900F9010
S11304200FBE0F901F9018952BEE39EC48E151E464
S11304300E944E040895CF92DF92EF92FF926B01D7
S11304407C0120E030E0A9010E942E0318160CF074
S113045040C020E030E048E454E4C701B6010E9403
S11304604E0420E030E040E752E40E9433036B0185
S11304707C0120E030E0A9010E942E03181664F5E7
S113048020E030E040E051E4C701B6010E944E0490
S11304909B01AC0160E074E284E79BE40E943303B7
S11304A06B017C0120E03FEF4FE757E40E944904D1
S11304B018164CF40F2EC12CDD24DA94FFE7EF2E2E
S11304C0F7E4FF2EF02DC701B6010E94A503CB016E
S11304D005C080E090E002C080E090E0FF90EF90E3
S11304E0DF90CF900895009759F4E0E8F0E0808120
S11304F08F7B8083E1E8F0E08081887F80830895AA
S113050020E4209380002AE02093810090938900C6
S1130510809388000895009759F4E0E9F0E0808121
S11305208F7B8083E1E9F0E08081887F8083089578
S113053020E4209390002AE0209391009093990066
S11305408093980008956093200170932101809313
S11305502201909323010E9414020E941B020E9414
S11305607302089560931C0170931D0180931E0112
S113057090931F010E9414020E941B020E948B028E
S113058008955058BB27AA270E94D9020C940F043F
S11305900E94010438F00E94080420F039F49F3FBF
S11305A019F426F40C94FE030EF4E095E7FB0C9486
S11305B0F803E92F0E94200458F3BA17620773075F
S11305C08407950720F079F4A6F50C9442040EF400
S11305D0E0950B2EBA2FA02D0B01B90190010C014F
S11305E0CA01A0011124FF27591B99F0593F50F467
S11305F0503E68F11A16F040A22F232F342F4427BF
S1130600585FF3CF469537952795A795F0405395B6
S1130610C9F77EF41F16BA0B620B730B840BBAF086
S11306209150A1F0FF0FBB1F661F771F881FC2F7F1
S11306300EC0BA0F621F731F841F48F48795779505
S11306406795B795F7959E3F08F0B0CF9395880FBF
S113065008F09927EE0F9795879508950E94D40383
S113066008F481E008950E9447030C940F040E944B
S1130670080458F00E94010440F029F45F3F29F077
S11306800C94F80351110C9443040C94FE030E943F
S1130690200468F39923B1F3552391F3951B550B6B
S11306A0BB27AA2762177307840738F09F5F5F4F41
S11306B0220F331F441FAA1FA9F335D00E2E3AF080
S11306C0E0E832D091505040E695001CCAF72BD098
S11306D0FE2F29D0660F771F881FBB1F26173707E9
S11306E04807AB07B0E809F0BB0B802DBF01FF271B
S11306F093585F4F3AF09E3F510578F00C94F803FD
S11307000C9443045F3FE4F3983ED4F386957795C5
S11307106795B795F7959F5FC9F7880F911D9695D3
S1130720879597F90895E1E0660F771F881FBB1F2F
S1130730621773078407BA0720F0621B730B840BDC
S1130740BA0BEE1F88F7E09508950E94280488F0FC
S11307509F5798F0B92F9927B751B0F0E1F0660F81
S1130760771F881F991F1AF0BA95C9F714C0B130C2
S113077091F00E944204B1E008950C944204672F62
S1130780782F8827B85F39F0B93FCCF386957795F1
S11307906795B395D9F73EF49095809570956195DA
S11307A07F4F8F4F9F4F0895990F0008550FAA0B45
S11307B0E0E8FEEF16161706E807F907C0F0121670
S11307C01306E407F50798F0621B730B840B950B73
S11307D039F40A2661F0232B242B252B21F40895C8
S11307E00A2609F4A140A6958FEF811D811D089565
S11307F097F99F6780E870E060E008959FEF80ECD0
S1130800089500240A941616170618060906089572
S113081000240A9412161306140605060895092ED8
S11308200394000C11F4882352F0BB0F40F4BF2B47
S113083011F460FF04C06F5F7F4F8F4F9F4F089587
S113084057FD9058440F551F59F05F3F71F047957D
S1130850880F97FB991F61F09F3F79F08795089562
S1130860121613061406551FF2CF4695F1DF08C081
S1130870161617061806991FF1CF8695710561059E
S113088008940895E894BB2766277727CB0197F946
S113089008950E94D40308F48FEF08950E94610420
S11308A00C940F040E94010438F00E94080420F004
S11308B0952311F00C94F8030C94FE0311240C946A
S11308C043040E94200470F3959FC1F3950F50E0F8
S11308D0551F629FF001729FBB27F00DB11D639FEE
S11308E0AA27F00DB11DAA1F649F6627B00DA11D94
S11308F0661F829F2227B00DA11D621F739FB00D3A
S1130900A11D621F839FA00D611D221F749F3327A9
S1130910A00D611D231F849F600D211D822F762F42
S11309206A2F11249F5750409AF0F1F088234AF01F
S1130930EE0FFF1FBB1F661F771F881F915050408B
S1130940A9F79E3F510580F00C94F8030C944304DE
S11309505F3FE4F3983ED4F3869577956795B79512
S1130960F795E7959F5FC1F7FE2B880F911D96952C
S10D0970879597F90895F894FFCFD6
S10B097A0000A04101F401009A
S9030000FC
