S015000052656D6F7465436F6E74726F6C2E73726563C2
S11300000C9456000C9473000C9473000C947300BD
S11300100C9473000C9473000C9473000C94730090
S11300200C9473000C9473000C9473000C94730080
S11300300C9473000C9473000C9473000C94730070
S11300400C9473000C9473000C9473000C94730060
S11300500C9473000C947C020C9473000C94730045
S11300600C9473000C9473000C9473000C94730040
S11300700C9473000C9473000C9473000C94730030
S11300800C9473000C9473000C9473000C94730020
S11300900C9473000C9473000C9473000C94730010
S11300A00C9473000C9473000C94730011241FBE01
S11300B0CFEFDAE0DEBFCDBF11E0A0E0B1E0EAE5CA
S11300C0F0E102C005900D92A433B107D9F721E005
S11300D0A4E3B1E001C01D92AB35B207E1F70E9481
S11300E0C4010C942B080C940000A0E0B0E0880F2D
S11300F0991FAA1FBB1F880F991FAA1FBB1F9C0112
S1130100AD01220F331F441F551F220F331F441FFD
S1130110551F60E074E284EF90E00E9409082150CA
S113012031093093CD002093CC0088E18093C9003D
S113013086E08093CA0008959091C80095FFFCCF93
S11301408093CE000895CF93DF93EC018BB180614F
S11301508BB98FE99FE00197F1F700C0000003C05D
S113016021960E949C0088818111FACF8FE99FE03B
S11301700197F1F700C000008BB18F7E8BB9DF913E
S1130180CF9108952091000121110E94A3000895A8
S1130190883409F440C028F48234E1F0863479F0DC
S11301A041C0823569F1833519F08C34D9F51DC00D
S11301B00E94250280E191E00E94C200089564EA51
S11301C070E781E592E40E94D20389E191E00E9404
S11301D0C200089564EA70E781E592E40E94140481
S11301E089E191E00E94C200089560E070E088E433
S11301F092E40E94560489E191E00E94C2000895AD
S113020060E070E088E492E40E94980489E191E05F
S11302100E94C20008950E94CD0381E291E00E94F1
S1130220C200089585E291E00E94C20008958335DA
S113023051F0863441F0823431F08C3421F082352F
S113024011F0883449F48093350191E0909334019E
S11302500E94C800109236010895809136018330BF
S113026078F190E0FC01EC5CFE4F20812B3141F5EC
S1130270FC01EB5CFE4F20812B3511F5FC01EA5C9F
S1130280FE4F8081823451F018F4813469F004C047
S1130290833431F0843431F080E007C082E405C057
S11302A082E503C08CE401C086E4882339F080939E
S11302B0350191E0909334010E94C80010923601F8
S11302C008958AB180618AB98BB18F7E8BB980E839
S11302D095E20E9475001092360110923501109239
S11302E034010E94F2018CE291E00E94C200089560
S11302F08091C8008823ECF48091CE00E09136010F
S1130300E73068F491E09E0F90933601F0E0E95CE9
S1130310FE4F8083E92FF0E0E95CFE4F10820E94DB
S113032017010E942D0180913601873010F0109240
S113033036010E94B703089584B1806784B985B1FA
S11303408F7E85B90895882321F085B1806485B9AD
S1130350089585B18F7B85B9089587B1806487B985
S113036084B1826084B98AB180688AB98BB18F778D
S11303708BB90895882321F085B1826085B90895E9
S113038085B18D7F85B908950E949C010E94AD01BD
S113039080E00E94A30180E00E94BA010E946101F2
S11303A081E00E94130561E378E08CE29DE30E9402
S11303B0480564EA70E781E592E40E94DF0460E0A6
S11303C070E080E292E40E94F90488EE93E00E94D7
S11303D0DA040E9478018FE39CE90197F1F700C0E9
S11303E00000F7CF82E084BD85E085BD8EE087BD47
S11303F0EEE6F0E08081826080837894109252016E
S11304001092510110925001109243011092440134
S1130410109245011092460110923F011092400142
S1130420109241011092420110924B0110924C0122
S113043010924D0110924E01109247011092480102
S11304401092490110924A0108951092520110929B
S113045051011092500180914F01882389F010922C
S11304604B0110924C0110924D0110924E011092CA
S11304704701109248011092490110924A010895CF
S113048060E070E0CB010E94F10560E070E0CB0118
S11304900E94000608951092520110925101109288
S11304A0500110924B0110924C0110924D01109288
S11304B04E01109247011092480110924901109286
S11304C04A01109243011092440110924501109286
S11304D0460110923F011092400110924101109286
S11304E0420160E070E0CB010E94F10560E070E041
S11304F0CB010E94000608951F920F920FB60F922F
S113050011248F929F92AF92BF92CF92DF92EF927B
S1130510FF922F933F934F935F936F937F938F93A8
S11305209F93AF93BF93EF93FF9380910D01882323
S1130530D1F0809152018823B1F0809150019091C3
S113054051010196909351018093500120915001E3
S11305503091510180910E0190910F0128173907B4
S113056010F00E944B0280914F01882309F4E6C0E9
S11305708090430190904401A0904501B0904601C1
S1130580C0904B01D0904C01E0904D01F0904E0191
S1130590A7019601C501B4010E947C0688232CF5AD
S11305A02091010130910201409103015091040115
S11305B0C501B4010E9410069B01AC016093430184
S11305C0709344018093450190934601C701B6019D
S11305D00E947C068823ACF5C0924301D09244016A
S11305E0E0924501F09246012CC0A7019601C50195
S11305F0B4010E949707181624F520910101309147
S113060002014091030150910401C501B4010E940B
S11306100F069B01AC0160934301709344018093E6
S1130620450190934601C701B6010E949707181629
S113063044F4C0924301D0924401E0924501F09207
S1130640460180903F0190904001A0904101B090FC
S11306504201C0904701D0904801E0904901F090D8
S11306604A01A7019601C501B4010E947C068823B2
S11306702CF5209101013091020140910301509128
S11306800401C501B4010E9410069B01AC016093F2
S11306903F01709340018093410190934201C7014F
S11306A0B6010E947C068823ACF5C0923F01D0922B
S11306B04001E0924101F09242012CC0A701960151
S11306C0C501B4010E949707181624F52091010171
S11306D0309102014091030150910401C501B4011C
S11306E00E940F069B01AC0160933F01709340018F
S11306F08093410190934201C701B6010E9497077C
S1130700181644F4C0923F01D0924001E092410196
S1130710F09242016091430170914401809145013E
S1130720909146010E94F10560913F017091400152
S113073080914101909142010E940006FF91EF9146
S1130740BF91AF919F918F917F916F915F914F91E5
S11307503F912F91FF90EF90DF90CF90BF90AF909B
S11307609F908F900F900FBE0F901F9018958091BF
S11307700D01882389F080915201882369F020912A
S113078050013091510180910E0190910F01281771
S1130790390710F00E944B020895109251011092F3
S11307A050010895CF92DF92EF92FF926B017C018A
S11307B020E030E0A9010E947C06882344F4C09024
S11307C00901D0900A01E0900B01F0900C0181E046
S11307D0809352010E94CD0380E00E94A30180E037
S11307E00E94BA0180914F01882389F0C0924B0185
S11307F0D0924C01E0924D01F0924E01C09247011B
S1130800D0924801E0924901F0924A0108C0C70120
S1130810B6010E94F105C701B6010E940006FF90CF
S1130820EF90DF90CF900895CF92DF92EF92FF92F6
S11308306B017C0120E030E0A9010E947C06882342
S113084044F4C0900901D0900A01E0900B01F090AB
S11308500C0182E0809352010E94CD0381E00E944A
S1130860A30181E00E94BA0180914F01882389F09D
S1130870C0924B01D0924C01E0924D01F0924E0196
S1130880C0924701D0924801E0924901F0924A0196
S113089008C0C701B6010E94F105C701B6010E9454
S11308A00006FF90EF90DF90CF900895CF92DF92F3
S11308B0EF92FF926B017C0120E030E0A9010E94DD
S11308C07C06882344F4C0900501D0900601E09092
S11308D00701F090080183E0809352010E94CD0348
S11308E081E00E94A30180E00E94BA0180914F013F
S11308F0882389F0C0924B01D0924C01E0924D01C3
S1130900F0924E01C0924701D0924801E092490111
S1130910F0924A0108C0C701B6010E94F105C7015F
S1130920B6010E940006FF90EF90DF90CF900895EB
S1130930CF92DF92EF92FF926B017C0120E030E0D6
S1130940A9010E947C06882344F4C0900501D0903C
S11309500601E0900701F090080184E080935201C1
S11309600E94CD0380E00E94A30181E00E94BA01AD
S113097080914F01882389F0C0924B01D0924C01A1
S1130980E0924D01F0924E01C0924701D09248018D
S1130990E0924901F0924A0108C0C701B6010E94E1
S11309A0F105C701B6010E940006FF90EF90DF90A9
S11309B0CF90089590930F0180930E010895CF92E4
S11309C0DF92EF92FF926B017C0120E030E0A901FD
S11309D00E949707181644F4C0920901D0920A01A4
S11309E0E0920B01F0920C01FF90EF90DF90CF901A
S11309F00895CF92DF92EF92FF926B017C0120E089
S1130A0030E0A9010E949707181644F4C09205012A
S1130A10D0920601E0920701F0920801FF90EF9056
S1130A20DF90CF9008950F931F9380934F0181110E
S1130A302CC060914B0170914C0180914D019091BB
S1130A404E01609343017093440180934501909358
S1130A5046010091470110914801209149013091CC
S1130A604A0100933F0110934001209341013093C8
S1130A7042010E94F10560913F0170914001809113
S1130A804101909142010E9400061F910F91089527
S1130A90CF92DF92EF92FF926B017C0120E030E075
S1130AA0A9010E949707181644F4C0920101D0923C
S1130AB00201E0920301F0920401FF90EF90DF90B5
S1130AC0CF9008952BEE39EC48E151E40E949C0745
S1130AD00895CF92DF92EF92FF926B017C0120E0A8
S1130AE030E0A9010E947C0618160CF040C020E0FA
S1130AF030E048E454E4C701B6010E949C0720E0BA
S1130B0030E040E752E40E9481066B017C0120E062
S1130B1030E0A9010E947C06181664F520E030E05C
S1130B2040E051E4C701B6010E949C079B01AC015F
S1130B3060E074E284E79BE40E9481066B017C011F
S1130B4020E03FEF4FE757E40E94970718164CF454
S1130B500F2EC12CDD24DA94FFE7EF2EF7E4FF2EED
S1130B60F02DC701B6010E94F306CB0105C080E059
S1130B7090E002C080E090E0FF90EF90DF90CF9093
S1130B800895009759F4E0E8F0E080818F7B80833A
S1130B90E1E8F0E08081887F8083089520E4209359
S1130BA080002AE02093810090938900809388003C
S1130BB00895009759F4E0E9F0E080818F7B808309
S1130BC0E1E9F0E08081887F8083089520E4209328
S1130BD090002AE0209391009093990080939800CC
S1130BE0089560935701709358018093590190932D
S1130BF05A010E9462050E9469050E94C105089578
S1130C00609353017093540180935501909356015E
S1130C100E9462050E9469050E94D90508955058F2
S1130C20BB27AA270E9427060C945D070E944F0742
S1130C3038F00E94560720F039F49F3F19F426F447
S1130C400C944C070EF4E095E7FB0C944607E92F4F
S1130C500E946E0758F3BA17620773078407950753
S1130C6020F079F4A6F50C9490070EF4E0950B2E81
S1130C70BA2FA02D0B01B90190010C01CA01A001EA
S1130C801124FF27591B99F0593F50F4503E68F145
S1130C901A16F040A22F232F342F4427585FF3CF86
S1130CA0469537952795A795F0405395C9F77EF457
S1130CB01F16BA0B620B730B840BBAF09150A1F0A0
S1130CC0FF0FBB1F661F771F881FC2F70EC0BA0F26
S1130CD0621F731F841F48F4879577956795B795AE
S1130CE0F7959E3F08F0B0CF9395880F08F09927A9
S1130CF0EE0F9795879508950E94220708F481E0E6
S1130D0008950E9495060C945D070E94560758F0BA
S1130D100E944F0740F029F45F3F29F00C944607E6
S1130D2051110C9491070C944C070E946E0768F3C0
S1130D309923B1F3552391F3951B550BBB27AA2790
S1130D4062177307840738F09F5F5F4F220F331FCA
S1130D50441FAA1FA9F335D00E2E3AF0E0E832D092
S1130D6091505040E695001CCAF72BD0FE2F29D095
S1130D70660F771F881FBB1F261737074807AB0767
S1130D80B0E809F0BB0B802DBF01FF2793585F4FDC
S1130D903AF09E3F510578F00C9446070C94910765
S1130DA05F3FE4F3983ED4F3869577956795B795BE
S1130DB0F7959F5FC9F7880F911D9695879597F9C9
S1130DC00895E1E0660F771F881FBB1F6217730742
S1130DD08407BA0720F0621B730B840BBA0BEE1F57
S1130DE088F7E09508950E94760788F09F5798F059
S1130DF0B92F9927B751B0F0E1F0660F771F881F1C
S1130E00991F1AF0BA95C9F714C0B13091F00E9435
S1130E109007B1E008950C949007672F782F8827E6
S1130E20B85F39F0B93FCCF3869577956795B3955C
S1130E30D9F73EF490958095709561957F4F8F4FCB
S1130E409F4F0895990F0008550FAA0BE0E8FEEF95
S1130E5016161706E807F907C0F012161306E4077A
S1130E60F50798F0621B730B840B950B39F40A2673
S1130E7061F0232B242B252B21F408950A2609F451
S1130E80A140A6958FEF811D811D089597F99F6755
S1130E9080E870E060E008959FEF80EC08950024FE
S1130EA00A941616170618060906089500240A94CB
S1130EB012161306140605060895092E0394000C51
S1130EC011F4882352F0BB0F40F4BF2B11F460FFE0
S1130ED004C06F5F7F4F8F4F9F4F089557FD905809
S1130EE0440F551F59F05F3F71F04795880F97FBEA
S1130EF0991F61F09F3F79F08795089512161306A4
S1130F001406551FF2CF4695F1DF08C016161706D2
S1130F101806991FF1CF8695710561050894089507
S1130F20E894BB2766277727CB0197F908950E9499
S1130F30220708F48FEF08950E94AF070C945D0711
S1130F400E944F0738F00E94560720F0952311F0B5
S1130F500C9446070C944C0711240C9491070E949E
S1130F606E0770F3959FC1F3950F50E0551F629F74
S1130F70F001729FBB27F00DB11D639FAA27F00DEE
S1130F80B11DAA1F649F6627B00DA11D661F829F15
S1130F902227B00DA11D621F739FB00DA11D621FFA
S1130FA0839FA00D611D221F749F3327A00D611D17
S1130FB0231F849F600D211D822F762F6A2F1124F9
S1130FC09F5750409AF0F1F088234AF0EE0FFF1F2C
S1130FD0BB1F661F771F881F91505040A9F79E3F83
S1130FE0510580F00C9446070C9491075F3FE4F39D
S1130FF0983ED4F3869577956795B795F795E795D9
S11310009F5FC1F7FE2B880F911D9695879597F9E1
S11310100895A1E21A2EAA1BBB1BFD010DC0AA1F35
S1131020BB1FEE1FFF1FA217B307E407F50720F04D
S1131030A21BB30BE40BF50B661F771F881F991FC8
S11310401A9469F760957095809590959B01AC0111
S10D1050BD01CF010895F894FFCF0D
S113105A010000A04100004842A470514201F40179
S113106A53544F505045440A004D4F56494E470A6F
S113107A004F4B0A004552524F520A00524541440E
S107108A590A0000FB
S9030000FC
